:100000000C9462000C948A000C948A000C948A0070
:100010000C948A000C948A000C948A000C948A0038
:100020000C948A000C948A000C948A000C948A0028
:100030000C948A000C948A000C948A000C948A0018
:100040000C943B050C948A000C9409050C94E30471
:100050000C948A000C948A000C948A000C948A00F8
:100060000C948A000C948A000000000024002700F1
:100070002A0000000000250028002B0000000000DE
:1000800023002600290004040404040404040202DA
:100090000202020203030303030301020408102007
:1000A0004080010204081020010204081020000012
:1000B0000008000201000003040700000000000027
:1000C0000000850511241FBECFEFD8E0DEBFCDBFF5
:1000D00011E0A0E0B1E0E2EDF5E102C005900D9283
:1000E000A035B107D9F722E0A0E5B1E001C01D922B
:1000F000A938B207E1F710E0C2E6D0E004C02197CA
:10010000FE010E94BA09C136D107C9F70E94E50570
:100110000C94E70A0C940000CF92DF92EF92FF92CA
:100120000F931F93CF93DF936C017A018B01C0E093
:10013000D0E0CE15DF0589F0D8016D918D01D60193
:10014000ED91FC910190F081E02DC6010995892B7C
:1001500011F47E0102C02196ECCFC701DF91CF914F
:100160001F910F91FF90EF90DF90CF900895FC01C9
:10017000918D828D981761F0828DDF01A80FB11DDE
:100180005D968C91928D9F5F9F73928F90E0089502
:100190008FEF9FEF0895FC01918D828D981731F0BC
:1001A000828DE80FF11D858D90E008958FEF9FEF10
:1001B0000895FC01918D228D892F90E0805C9F4FE6
:1001C000821B91098F739927089589E891E00E9415
:1001D000D90021E0892B09F420E0822F0895FC0149
:1001E000848DDF01A80FB11DA35ABF4F2C91848DC0
:1001F00090E001968F739927848FA689B7892C93F5
:10020000A089B1898C9180648C93938D848D98138F
:1002100006C00288F389E02D80818F7D8083089558
:10022000EF92FF920F931F93CF93DF93EC0181E046
:10023000888F9B8D8C8D981305C0E889F989808102
:1002400085FD24C0F62E0B8D10E00F5F1F4F0F733E
:100250001127E02E8C8DE8120CC00FB607FCFACFE8
:10026000E889F989808185FFF5CFCE010E94EF00F2
:10027000F1CF8B8DFE01E80FF11DE35AFF4FF082A5
:100280000B8FEA89FB898081806207C0EE89FF8934
:100290006083E889F98980818064808381E090E0CF
:1002A000DF91CF911F910F91FF90EF900895CF9321
:1002B000DF93EC01888D8823C9F0EA89FB8980816E
:1002C00085FD05C0A889B9898C9186FD0FC00FB640
:1002D00007FCF5CF808185FFF2CFA889B9898C9181
:1002E00085FFEDCFCE010E94EF00E7CFDF91CF91E8
:1002F000089580E090E0892B29F00E94E5008111AB
:100300000C9400000895833081F028F4813099F036
:100310008230A1F008958730A9F08830B9F0843098
:10032000D1F4809180008F7D03C0809180008F7711
:1003300080938000089584B58F7702C084B58F7D47
:1003400084BD08958091B0008F7703C08091B00084
:100350008F7D8093B0000895CF93DF93E0ECF0E0C1
:100360008491ECEAF0E0D491E8E9F0E0C491CC2388
:1003700091F081110E948301EC2FF0E0EE0FFF1F3E
:10038000E458FF4FA591B491EC91ED2381E090E00A
:1003900021F480E002C080E090E0DF91CF910895E9
:1003A0001F93CF93DF93282F30E0F901E255FF4FE1
:1003B0008491F901E656FF4FD491F901EA57FF4FB6
:1003C000C491CC23C9F0162F81110E948301EC2F18
:1003D000F0E0EE0FFF1FEE58FF4FA591B4918FB7DD
:1003E000F894111105C09C91ED2FE095E92302C00E
:1003F000EC91ED2BEC938FBFDF91CF911F9108957E
:10040000CF93DF9390E0FC01E656FF4F2491FC016F
:10041000EA57FF4F8491882361F190E0880F991F7C
:10042000FC01E859FF4FC591D491FC01EE58FF4FF4
:10043000A591B491611109C09FB7F8948881209566
:1004400082238883EC912E230BC0623061F49FB726
:10045000F8943881822F809583238883EC912E2B0A
:100460002C939FBF06C08FB7F894E8812E2B28836A
:100470008FBFDF91CF9108951F93CF93DF93182FF4
:10048000EB0161E00E940002209711F460E004C0DB
:10049000CF3FD10539F461E0812FDF91CF911F91DA
:1004A0000C94D001E12FF0E0E255FF4FE491E330EE
:1004B000F9F048F4E130B9F0E230A1F584B580629A
:1004C00084BDC8BD34C0E730E9F0E83019F1E4304C
:1004D00049F580918000806280938000D0938B00EA
:1004E000C0938A0024C084B5806884BDC7BD1FC086
:1004F00080918000806880938000D0938900C093B1
:10050000880015C08091B00080688093B000C093CF
:10051000B3000DC08091B00080628093B000C093A2
:10052000B40005C0C038D1050CF0B5CFAFCFDF9116
:10053000CF911F9108958E3008F08E50877080649F
:1005400080937C0080917A00806480937A0080910F
:100550007A0086FDFCCF809178002091790090E0B0
:10056000922B08953FB7F8948091590190915A01C8
:10057000A0915B01B0915C0126B5A89B05C02F3FFF
:1005800019F00196A11DB11D3FBFBA2FA92F982FB9
:100590008827820F911DA11DB11DBC01CD0142E034
:1005A000660F771F881F991F4A95D1F70895CF933B
:1005B000DF93D72FC82F70E089E00E943C026D2F97
:1005C00070E08AE00E943C026C2F70E08BE0DF91CB
:1005D000CF910C943C028F929F92AF92BF92CF9298
:1005E000DF92EF92FF92C0905001D0905101E090C5
:1005F0005201F09053018090630190906401A090AB
:100600006501B0906601A0910201B0910301A701BC
:1006100096010E94AE0ADC01CB012AE0B695A795AF
:10062000979587952A95D1F7880D991DAA1DBB1D11
:100630008093670190936801A0936901B0936A0168
:10064000C80CD91CEA1CFB1CC0926B01D0926C0137
:10065000E0926D01F0926E01FF90EF90DF90CF90ED
:10066000BF90AF909F908F900895CF92DF92EF92BE
:10067000FF926B017C0180916F0181110DC081E0BF
:1006800080936F010E94B2026093630170936401D2
:100690008093650190936601C0925001D092510100
:1006A000E0925201F0925301FF90EF90DF90CF90D3
:1006B0000C94EB0280913C02882319F1813031F4D3
:1006C00082E080933C0287E492E002C080E090E008
:1006D00020914502222351F041E452E063E472E0AC
:1006E0000E943F0A9093400280933F0280913F0214
:1006F00090914002892B21F01092450281E00895EB
:1007000080E00895009769F0FC0101900020E9F76E
:100710003197AF01481B590BBC0189E891E00C945B
:100720008C0080E090E008958F929F92AF92BF92EC
:100730000F931F93CF93DF93CDB7DEB7A1970FB67B
:10074000F894DEBF0FBECDBF19A2423008F44AE0D4
:100750008E010F5D1F4F842E912CA12CB12CA50171
:1007600094010E94B60AE62FB901CA01015011098D
:10077000EA3014F4E05D01C0E95CD801EC93232B6E
:10078000242B252B61F7C8010E948203A1960FB686
:10079000F894DEBF0FBECDBFDF91CF911F910F91B7
:1007A000BF90AF909F908F9008950E945A03882326
:1007B00049F081E08093450280913F029091400290
:1007C0000C94210A80E090E00895CF92DF92EF929E
:1007D000FF92CF93DF936C01990FEE08FF08F7FEAD
:1007E0001AC0E0918901F0918A010190F081E02D19
:1007F0006DE289E891E00995EC0166277727CB0146
:100800006C197D098E099F094AE00E9494037C01BE
:10081000EC0EFD1E06C04AE0C701B6010E9494031B
:100820007C0189E191E00E9482038E0D9F1DDF9182
:10083000CF91FF90EF90DF90CF9008950E94C00974
:10084000CF92DF92EF92FF921F93CF93DF9311E04D
:10085000CFEFD0E00E945A03882309F4ACC00E9475
:100860005A038823B9F310934502E0913F02F091B7
:10087000400280818D3409F451C0A8F4833409F416
:1008800064C0863439F70E94D503809580930401B3
:100890008CE191E00E948203809104019E01281B5B
:1008A0003109C9014FC08235E9F0833599F687E3F4
:1008B00091E00E94820360917A0180E090E00E94C2
:1008C000760A60917C0181E090E00E94760A609156
:1008D0007E0182E090E00E94760A88E491E00E9426
:1008E000820364C081E291E00E94820389E191E089
:1008F0000E9482030E94B2026B017C010E94B2023C
:10090000DC01CB018C199D09AE09BF09883E9340DB
:10091000A105B10598F30C94001C9CCF8091870130
:10092000909188010E94E5030E94D503909388016D
:10093000809387018AE291E00E948203809187017F
:10094000909188010E94E50385CF0E94D503909382
:100950007B0180937A010E94D50390937D0180935F
:100960007C010E94D50390937F0180937E0180E3F8
:1009700091E00E94820360917A0170917B0180E096
:1009800090E04AE00E94940360917C0170917D01A7
:1009900080E090E04AE00E94940360917E017091B3
:1009A0007F0180E090E04AE00E94940389E191E0B9
:1009B0000E9482034FCFDF91CF911F91FF90EF9064
:1009C000DF90CF9008951F920F920FB60F921124CF
:1009D0002F933F934F935F936F937F938F939F9347
:1009E000AF93BF93EF93FF9389E891E00E94EF00EC
:1009F000FF91EF91BF91AF919F918F917F916F91F7
:100A00005F914F913F912F910F900FBE0F901F90CC
:100A100018951F920F920FB60F9211242F938F9358
:100A20009F93EF93FF93E0919901F0919A01808158
:100A3000E0919F01F091A00182FD12C09081809110
:100A4000A2018F5F8F732091A301821751F0E09173
:100A5000A201F0E0E757FE4F958F8093A20101C0FD
:100A60008081FF91EF919F918F912F910F900FBEF9
:100A70000F901F9018951F920F920FB60F9211248E
:100A80002F933F938F939F93AF93BF938091550183
:100A900090915601A0915701B091580130915401A5
:100AA00023E0230F2D3720F40196A11DB11D05C0B1
:100AB00026E8230F0296A11DB11D209354018093B7
:100AC000550190935601A0935701B093580180911E
:100AD000590190915A01A0915B01B0915C0101967E
:100AE000A11DB11D8093590190935A01A0935B0100
:100AF000B0935C01BF91AF919F918F913F912F91E6
:100B00000F900FBE0F901F901895E9E8F1E0138247
:100B1000128288EE93E0A0E0B0E084839583A68300
:100B2000B7838DE091E09183808385EC90E0958799
:100B3000848784EC90E09787868780EC90E0918BA7
:100B4000808B81EC90E0938B828B82EC90E0958B94
:100B5000848B86EC90E0978B868B118E128E138E91
:100B6000148EECE3F2E01282118280E28783108619
:100B700080E4809387028FE380938802128610823C
:100B8000148213821682158281E08187E6E2F2E008
:100B900080E894E8AEE1B0E080839183A283B383E0
:100BA00085E393E0958384831682178210861186ED
:100BB000128613861486158616861786108A118A61
:100BC000128A138A148A158A0895789484B58260EB
:100BD00084BD84B5816084BD85B5826085BD85B5E1
:100BE000816085BD80916E00816080936E0010925F
:100BF00081008091810082608093810080918100DA
:100C0000816080938100809180008160809380006A
:100C10008091B10084608093B1008091B0008160C8
:100C20008093B00080917A00846080937A008091F4
:100C30007A00826080937A0080917A00816080934C
:100C40007A0080917A00806880937A001092C100C7
:100C5000E0919901F0919A0182E08083E0919901FD
:100C6000F0919A011082E0919501F0919601108225
:100C7000E0919701F091980180E180831092A101A9
:100C8000E0919D01F0919E0186E08083E0919B01BF
:100C9000F0919C01808180618083E0919B01F091C3
:100CA0009C01808188608083E0919B01F0919C0190
:100CB000808180688083E0919B01F0919C0180811C
:100CC0008F7D808380E294E090933E0280933D028A
:100CD00080918100887F8160809381008091B10044
:100CE000887F81608093B10062E082E10E9400020F
:100CF00061E089E00E94000260E089E00E94D0018A
:100D000061E08AE00E94000260E08AE00E94D00177
:100D100061E08BE00E94000260E08BE00E94D00165
:100D200061E086E00E9400026FEF70E086E00E94C2
:100D30003C0261E08CE00E94000261E08CE00E94D5
:100D4000D00160E08EE00E94000262E082E00E943A
:100D5000000280E090E00E946E0A90E090937B0198
:100D600080937A0181E090E00E946E0A90E0909377
:100D70007D0180937C0182E090E00E946E0A90E009
:100D800090937F0180937E010E94AC01892B31F406
:100D900081E090E090938801809387010E94EB02AC
:100DA000EE24E39466246A94712C6091040170E04F
:100DB00086E00E943C028EE00E949B0296958795F9
:100DC00096958795909362018093610180915D0172
:100DD00090915E01A0915F01B09160010196A11D0B
:100DE000B11D80935D0190935E01A0935F01B0936C
:100DF0006001883E9340A105B105C8F08DE491E003
:100E00000E948203609161017091620180E090E034
:100E10004AE00E94940389E191E00E9482031092CB
:100E20005D0110925E0110925F011092600180914D
:100E3000610190916201873B910518F010920401C5
:100E40000AC08B3A910520F034E63093040103C0C8
:100E50006FEF6093040181E10E949B026C01D694C4
:100E6000C794D694C794D0928101C092800180E14A
:100E70000E949B028C011695079516950795109375
:100E80008301009382018FE00E949B02EC01D695C2
:100E9000C795D695C795D0938501C09384010E94CC
:100EA000AC01FF24F394892B09F4F12C8091870184
:100EB000909188018130910509F4C4C18230910577
:100EC00009F4E0C1892B09F0F3C10E94B2024B0181
:100ED0005C018091720181110AC0809102019091A0
:100EE00003019093710180937001E092720180E0A0
:100EF00094E08C199D096C01909303018093020189
:100F00008091700190917101D601A81BB90BCD01A0
:100F1000B7FF03C0919581959109039714F00E9442
:100F2000EB02D0927101C09270011695079516954B
:100F300007959301201B310B89012A30310510F4EC
:100F40000AE010E0D02E00930101CE018C5F9340A7
:100F5000049730F0D695C795D695C795C09501C032
:100F6000C0E0C093000180916F01882309F495C00F
:100F700080916B0190916C01A0916D01B0916E0117
:100F800088159905AA05BB0508F087C00E94130AB9
:100F9000DD2009F470C02FEF30E040E050E00E9407
:100FA000840AE62F862F6BE20E94AE094C2F50E098
:100FB00011279301201B310B429FD001439FB00D9D
:100FC000529FB00D11249B2F682F75ED7603900171
:100FD00011242E0F311D322F330F230F220F30E03B
:100FE000029FB001039F700D129F700D1124672F97
:100FF000770F770BF301E61BF70B4E9FB0014F9F66
:10100000700D5E9F700D1124F301E21BF30B0E9F18
:1010100090010F9F300D1E9F300D1124232F330F91
:10102000330BF301E21BF30B4E9F90014F9F300DEA
:101030005E9F300D1124432F823081F038F48823D5
:10104000B9F0813099F44C2FC72F12C0833051F082
:10105000843061F49C2FC32F4B2F0AC04C2FCB2F11
:10106000932F06C0472F9C2FCB2F02C04B2F972FBB
:101070006C2FC92F02C04C2F6C2F742F8C2F0E9405
:10108000D7020E94B202609363017093640180935F
:101090006501909366010E94EB0280916701909137
:1010A0006801A0916901B0916A0188159905AA05A6
:1010B000BB0528F460E070E080E00E94D7022F2D8D
:1010C00030E08091860190E0281739070CF0F0C0DD
:1010D0000E94B20200912C0210912D0220912E024A
:1010E00030912F024B015C01801A910AA20AB30AC7
:1010F0000E94B20260932C0270932D0280932E0204
:1011000090932F028091260290912702A0912802AD
:10111000B091290288159905AA05BB0548F41092DB
:101120003002109231021092320210923302C0C08B
:101130008091300290913102A0913202B09133023D
:101140000097A105B105A9F481E090E0A0E0B0E02E
:101150008093300290933102A0933202B093330215
:101160008092340290923502A0923602B0923702F9
:1011700061C0209034023090350240903602509089
:1011800037020197A105B105C9F462E070E080E083
:1011900090E060933002709331028093320290931A
:1011A00033028092380290923902A0923A02B092B1
:1011B0003B02820C931CA41CB51C38C02091380241
:1011C0003091390240913A0250913B02A3E0B0E0E5
:1011D0000E94A30ADC01CB0142E0B695A795979542
:1011E00087954A95D1F79201810152E0369527956E
:1011F000179507955A95D1F7800F911FA21FB31F1E
:101200008093340290933502A0933602B093370254
:101210008092380290923902A0923A02B0923B0238
:10122000880D991DAA1DBB1D4C015D01B694A794A4
:1012300097948794E0912A02F0912B02C501B401A2
:10124000099536C0B601769567957695679516959A
:10125000079516950795CE0196958795969587954E
:10126000702F0E94D7022F2D30E08091860190E0F0
:1012700028173907ECF482E090E09093880180937E
:10128000870116C070917C0160917A0180917E0186
:101290000E94D7022F2D30E08091860190E0281720
:1012A000390734F4A1E0B0E0B0938801A09387013E
:1012B000F092860189E891E00E94D900892B09F417
:1012C0004AC089E891E00E94B70010923C021816CB
:1012D00019069CF58A30910581F120914602E22F92
:1012E000F0E0E45CFD4F8D30910591F4138610928F
:1012F00046021092420210924102E0924502E092B0
:101300003C0227E432E03093400220933F0215C0B4
:101310008387E1E0E20FE093460280918802E817BC
:1013200060F0109246021092400210923F0210921A
:10133000420210924102E092450280913C028130CB
:1013400009F0B8CFE0913D02F0913E02309709F4E8
:10135000B1CF0995AFCF0E94790127CD991B79E0D4
:1013600004C0991F961708F0961B881F7A95C9F735
:1013700080950895EE0FFF1F0590F491E02D0994DC
:1013800081E090E0F8940C94E70A8F929F92AF92DC
:10139000BF92CF92DF92EF92FF92CF93DF93EC0157
:1013A000688179818A819B8161157105810591052B
:1013B00021F464E279ED8BE597E02DE133EF41E034
:1013C00050E00E94840A49015A019B01AC01A7EA3E
:1013D000B1E40E94A30A6B017C01ACEEB4EFA5015D
:1013E00094010E94B10ADC01CB018C0D9D1DAE1D44
:1013F000BF1DB7FF03C00197A109B0488883998337
:10140000AA83BB83BC01CD019F77DF91CF91FF9071
:10141000EF90DF90CF90BF90AF909F908F90089506
:101420000E94C509089585E091E00E94C5090895CC
:101430006093050170930601809307019093080162
:101440000895FC0188279927E89421912032E9F337
:10145000293010F02E30C8F32B3241F02D3239F400
:10146000689404C00E94660A820F911D2191205346
:101470002A30C0F31EF4909581959F4F0895FA018C
:10148000A191B081009719F41097E1F0CD01DC0132
:10149000CD010D90002011F4C00113C0FB0121917A
:1014A000222319F02015D9F7F3CFFB012191201544
:1014B00019F41E92119606C02223C1F70D90002048
:1014C000A1F7D001FA01A193B08308957AE0979F24
:1014D000902D879F802D910D11240895F999FECFAD
:1014E00092BD81BDF89A992780B50895262FF99964
:1014F000FECF1FBA92BD81BD20BD0FB6F894FA9AF7
:10150000F99A0FBE01960895052E97FB1EF40094DC
:101510000E949B0A57FD07D00E94B60A07FC03D021
:101520004EF40C949B0A50954095309521953F4F71
:101530004F4F5F4F089590958095709561957F4FBF
:101540008F4F9F4F08950E94D80AA59F900DB49F7A
:10155000900DA49F800D911D11240895B7FF0C9448
:10156000A30A0E94A30A821B930B0895A1E21A2EDC
:10157000AA1BBB1BFD010DC0AA1FBB1FEE1FFF1F37
:10158000A217B307E407F50720F0A21BB30BE40B87
:10159000F50B661F771F881F991F1A9469F76095CE
:1015A0007095809590959B01AC01BD01CF01089588
:1015B000A29FB001B39FC001A39F700D811D112494
:1015C000911DB29F700D811D1124911D0895F894F5
:0215D000FFCF4B
:1015D200FFFF0002FF010000000000000010018C6C
:1015E20000D900B700CB0057010D0A0046414E3A20
:1015F200005245534554494E47004D4F44453A0029
:10160200434F4C4F523A0077726974696E672045B6
:101612004550524F4D212000446F6E6500543A00F0
:00000001FF
