:100000000C9474000C949C000C949C000C949C0028
:100010000C949C000C949C000C949C000C949C00F0
:100020000C949C000C949C000C949C000C949C00E0
:100030000C949C000C949C000C949C000C949C00D0
:100040000C94D1050C949C000C949F050C9479059C
:100050000C949C000C949C000C949C000C949C00B0
:100060000C949C000C949C00AD0452045204700447
:10007000D5041C055204520452045204980452043C
:100080005204350552048004BC04660500000000DB
:10009000240027002A0000000000250028002B0073
:1000A00000000000230026002900040404040404C6
:1000B0000404020202020202030303030303010217
:1000C00004081020408001020408102001020408E6
:1000D00010200000000800020100000304070000D7
:1000E0000000000000001B0611241FBECFEFD8E067
:1000F000DEBFCDBF11E0A0E0B1E0EAEAF7E102C067
:1001000005900D92A43EB107D9F723E0A4EEB1E02B
:1001100001C01D92A132B207E1F710E0C4E7D0E0C0
:1001200004C02197FE010E94A60AC337D107C9F770
:100130000E947B060C94D30B0C940000CF92DF92AC
:10014000EF92FF920F931F93CF93DF936C017A018D
:100150008B01C0E0D0E0CE15DF0589F0D8016D91AC
:100160008D01D601ED91FC910190F081E02DC60149
:100170000995892B11F47E0102C02196ECCFC701AD
:10018000DF91CF911F910F91FF90EF90DF90CF9073
:100190000895FC01918D828D981761F0828DDF01A9
:1001A000A80FB11D5D968C91928D9F5F9F73928F6A
:1001B00090E008958FEF9FEF0895FC01918D828D5F
:1001C000981731F0828DE80FF11D858D90E008952C
:1001D0008FEF9FEF0895FC01918D228D892F90E084
:1001E000805C9F4F821B91098F739927089581E24C
:1001F00092E00E94EB0021E0892B09F420E0822F9D
:100200000895FC01848DDF01A80FB11DA35ABF4FD3
:100210002C91848D90E001968F739927848FA68905
:10022000B7892C93A089B1898C9180648C93938D2C
:10023000848D981306C00288F389E02D80818F7D1C
:1002400080830895EF92FF920F931F93CF93DF93D4
:10025000EC0181E0888F9B8D8C8D981305C0E88917
:10026000F989808185FD24C0F62E0B8D10E00F5F8B
:100270001F4F0F731127E02E8C8DE8120CC00FB6A4
:1002800007FCFACFE889F989808185FFF5CFCE0197
:100290000E940101F1CF8B8DFE01E80FF11DE35AA1
:1002A000FF4FF0820B8FEA89FB898081806207C053
:1002B000EE89FF896083E889F98980818064808381
:1002C00081E090E0DF91CF911F910F91FF90EF902F
:1002D0000895CF93DF93EC01888D8823C9F0EA89D4
:1002E000FB89808185FD05C0A889B9898C9186FD2F
:1002F0000FC00FB607FCF5CF808185FFF2CFA8892C
:10030000B9898C9185FFEDCFCE010E940101E7CF25
:10031000DF91CF91089580E090E0892B29F00E9431
:10032000F70081110C9400000895833081F028F4C7
:10033000813099F08230A1F008958730A9F088309B
:10034000B9F08430D1F4809180008F7D03C080911A
:1003500080008F7780938000089584B58F7702C0E6
:1003600084B58F7D84BD08958091B0008F7703C0E0
:100370008091B0008F7D8093B0000895CF93DF937C
:10038000E4EEF0E08491E0EDF0E0D491ECEBF0E00D
:10039000C491CC2391F081110E949501EC2FF0E0E3
:1003A000EE0FFF1FE056FF4FA591B491EC91ED23A6
:1003B00081E090E021F480E002C080E090E0DF91F5
:1003C000CF9108951F93CF93DF93282F30E0F90149
:1003D000EE52FF4F8491F901E254FF4FD491F9019D
:1003E000E655FF4FC491CC23C9F0162F81110E940E
:1003F0009501EC2FF0E0EE0FFF1FEA56FF4FA5919D
:10040000B4918FB7F894111105C09C91ED2FE09530
:10041000E92302C0EC91ED2BEC938FBFDF91CF91DC
:100420001F910895CF93DF9390E0FC01E254FF4FBA
:100430002491FC01E655FF4F8491882361F190E0FF
:10044000880F991FFC01E457FF4FC591D491FC011F
:10045000EA56FF4FA591B491611109C09FB7F89476
:100460008881209582238883EC912E230BC06230F3
:1004700061F49FB7F8943881822F80958323888315
:10048000EC912E2B2C939FBF06C08FB7F894E88178
:100490002E2B28838FBFDF91CF9108951F93CF9389
:1004A000DF93182FEB0161E00E941202209711F4F4
:1004B00060E004C0CF3FD10539F461E0812FDF91C6
:1004C000CF911F910C94E201E12FF0E0EE52FF4F2B
:1004D000E491E330F9F048F4E130B9F0E230A1F50D
:1004E00084B5806284BDC8BD34C0E730E9F0E8302F
:1004F00019F1E43049F5809180008062809380009A
:10050000D0938B00C0938A0024C084B5806884BDDA
:10051000C7BD1FC080918000806880938000D09309
:100520008900C093880015C08091B00080688093D6
:10053000B000C093B3000DC08091B0008062809382
:10054000B000C093B40005C0C038D1050CF0B5CFE1
:10055000AFCFDF91CF911F9108958E3008F08E506C
:100560008770806480937C0080917A00806480939F
:100570007A0080917A0086FDFCCF809178002091EE
:10058000790090E0922B08953FB7F8948091ED01A7
:100590009091EE01A091EF01B091F00126B5A89BDA
:1005A00005C02F3F19F00196A11DB11D3FBFBA2F05
:1005B000A92F982F8827820F911DA11DB11DBC0165
:1005C000CD0142E0660F771F881F991F4A95D1F72A
:1005D0000895CF93DF93D72FC82F70E089E00E9452
:1005E0004E026D2F70E08AE00E944E026C2F70E088
:1005F0008BE0DF91CF910C944E028F929F92AF923D
:10060000BF92CF92DF92EF92FF92C090E401D09020
:10061000E501E090E601F090E7018090F70190900D
:10062000F801A090F901B090FA01A0910201B091F7
:100630000301A70196010E949A0BDC01CB012AE07D
:10064000B695A795979587952A95D1F7880D991D09
:10065000AA1DBB1D8093FB019093FC01A093FD019B
:10066000B093FE01C80CD91CEA1CFB1CC092FF0110
:10067000D0920002E0920102F0920202FF90EF900D
:10068000DF90CF90BF90AF909F908F900895CF92C2
:10069000DF92EF92FF926B017C0180910302811146
:1006A0000DC081E0809303020E94C4026093F701B1
:1006B0007093F8018093F9019093FA01C092E401DC
:1006C000D092E501E092E601F092E701FF90EF9011
:1006D000DF90CF900C94FD028091D402882319F111
:1006E000813031F482E08093D4028FED92E002C039
:1006F00080E090E02091DD02222351F049ED52E0AC
:100700006BED72E00E942B0B9093D8028093D7027E
:100710008091D7029091D802892B21F01092DD02AE
:1007200081E0089580E00895009769F0FC01019050
:100730000020E9F73197AF01481B590BBC0181E25A
:1007400092E00C949E0080E090E008958F929F923A
:10075000AF92BF920F931F93CF93DF93CDB7DEB7C6
:10076000A1970FB6F894DEBF0FBECDBF19A24230DD
:1007700008F44AE08E010F5D1F4F842E912CA12CAE
:10078000B12CA50194010E94A20BE62FB901CA0168
:1007900001501109EA3014F4E05D01C0E95CD801B0
:1007A000EC93232B242B252B61F7C8010E94940383
:1007B000A1960FB6F894DEBF0FBECDBFDF91CF91EB
:1007C0001F910F91BF90AF909F908F900895CF92FF
:1007D000DF92EF92FF92CF93DF936B017C01E09168
:1007E0002102F09122020190F081E02D6DE281E280
:1007F00092E00995EC0166277727CB016C197D09FA
:100800008E099F094AE00E94A6038C0F9D1FDF916D
:10081000CF91FF90EF90DF90CF9008950C949403C8
:10082000CF93DF930E949403EC0189E191E00E9451
:1008300094038C0F9D1FDF91CF910895CF93DF9389
:10084000BC01990F880B990B97FF03C00E94E70327
:1008500003C04AE00E94A603EC0189E191E00E94F6
:1008600094038C0F9D1FDF91CF9108950E946C031C
:10087000882349F081E08093DD028091D702909136
:10088000D8020C940D0B80E090E008950E94AC0A11
:10089000CF92DF92EF92FF921F93CF93DF9311E0FD
:1008A000CFEFD0E00E946C03882309F41AC10E94A4
:1008B0006C03882341F01093DD02E091D702F091A0
:1008C000D802E08101C0E0E08E2F90E0FC01E3540B
:1008D000F109E231F10530F7EC5CFF4F0C94A60A08
:1008E0000E9436048095809304018CE191E00E947F
:1008F0000E04809104019E01281B3109C901EEC03C
:1009000081E291E00E9410040E94C4026B017C010C
:100910000E94C402DC01CB018C199D09AE09BF09FC
:10092000883E9340A105B10598F30C94001CBACF02
:1009300080911B0290911C020E941E040E943604AA
:1009400090931C0280931B028AE291E00E940E04A5
:1009500080911B0290911C02C1C00E9436049093AA
:100960000F0280930E020E9436049093110280932E
:1009700010020E94360430C087E391E00E940E040A
:1009800060910E0280E090E00E94620B6091100284
:1009900081E090E00E94620B6091120282E090E0A0
:1009A0000E94620B88E491E05DC080E090E00E94CC
:1009B0005A0B90E090930F0280930E0281E090E03A
:1009C0000E945A0B90E0909311028093100282E0F3
:1009D00090E00E945A0B90E09093130280931202D1
:1009E00080E391E00E940E0460910E0270910F026C
:1009F00080E090E04AE00E94A60386E491E00E9435
:100A00000E04609110027091110280E090E04AE0C3
:100A10000E94A60386E491E00E940E0460911202F7
:100A20007091130280E090E04AE00E94A60389E101
:100A300091E00E94940336CF8DE491E00E9410046F
:100A400084E591E00E9410048CE591E00E9410047E
:100A50008FE791E00E94100481EA91E00E94100467
:100A600082EB91E00E9410041DCF84EC91E00E9483
:100A70000E046091140270911502072E000C880B71
:100A8000990B97FF03C00E94E70303C04AE00E944E
:100A9000A60388EC91E00E940E046091160270910A
:100AA0001702072E000C880B990B97FF03C00E94BA
:100AB000E70303C04AE00E94A6038CEC91E00E9489
:100AC0000E04809118029091190208C081EE91E005
:100AD0000E940E048091F5019091F6010E941E047F
:100AE000E1CEDF91CF911F91FF90EF90DF90CF90FB
:100AF00008951F920F920FB60F9211242F933F93D8
:100B00004F935F936F937F938F939F93AF93BF9315
:100B1000EF93FF9381E292E00E940101FF91EF9138
:100B2000BF91AF919F918F917F916F915F914F9105
:100B30003F912F910F900FBE0F901F9018951F920D
:100B40000F920FB60F9211242F938F939F93EF93D1
:100B5000FF93E0913102F09132028081E0913702FF
:100B6000F091380282FD12C0908180913A028F5F2D
:100B70008F7320913B02821751F0E0913A02F0E02E
:100B8000EF5DFD4F958F80933A0201C08081FF9108
:100B9000EF919F918F912F910F900FBE0F901F900B
:100BA00018951F920F920FB60F9211242F933F9317
:100BB0008F939F93AF93BF938091E9019091EA0146
:100BC000A091EB01B091EC013091E80123E0230FFB
:100BD0002D3720F40196A11DB11D05C026E8230F75
:100BE0000296A11DB11D2093E8018093E901909325
:100BF000EA01A093EB01B093EC018091ED0190919B
:100C0000EE01A091EF01B091F0010196A11DB11D7F
:100C10008093ED019093EE01A093EF01B093F0016A
:100C2000BF91AF919F918F913F912F910F900FBEE8
:100C30000F901F901895E1E2F2E01382128288EE85
:100C400093E0A0E0B0E084839583A683B7838DE032
:100C500091E09183808385EC90E09587848784EC94
:100C600090E09787868780EC90E0918B808B81EC79
:100C700090E0938B828B82EC90E0958B848B86EC5A
:100C800090E0978B868B118E128E138E148EE4ED6E
:100C9000F2E01282118280E28783108680E48093E2
:100CA0001F038FE380932003128610821482138225
:100CB0001682158281E08187EEEBF2E080E894E80D
:100CC000AEE1B0E080839183A283B38387E493E0B5
:100CD0009583848316821782108611861286138666
:100CE0001486158616861786108A118A128A138A28
:100CF000148A158A0895789484B5826084BD84B579
:100D0000816084BD85B5826085BD85B5816085BD06
:100D100080916E00816080936E00109281008091BE
:100D20008100826080938100809181008160809346
:100D30008100809180008160809380008091B1006B
:100D400084608093B1008091B00081608093B00096
:100D500080917A00846080937A0080917A0082602A
:100D600080937A0080917A00816080937A008091EC
:100D70007A00806880937A001092C100E09131027D
:100D8000F091320282E08083E0913102F0913202F0
:100D90001082E0912D02F0912E021082E0912F023C
:100DA000F091300280E1808310923902E0913502A7
:100DB000F091360286E08083E0913302F0913402B4
:100DC000808180618083E0913302F09134028081E0
:100DD00088608083E0913302F091340280818068E2
:100DE0008083E0913302F091340280818F7D808393
:100DF00088E494E09093D6028093D502809181009C
:100E0000887F8160809381008091B100887F8160BC
:100E10008093B10062E082E10E94120261E089E009
:100E20000E94120260E089E00E94E20161E08AE033
:100E30000E94120260E08AE00E94E20161E08BE021
:100E40000E94120260E08BE00E94E20161E086E015
:100E50000E9412026FEF70E086E00E944E0261E095
:100E60008CE00E94120261E08CE00E94E20160E0EE
:100E70008EE00E94120262E082E00E94120280E094
:100E800090E00E945A0B90E090930F0280930E0224
:100E900081E090E00E945A0B90E0909311028093C1
:100EA000100282E090E00E945A0B90E090931302AF
:100EB000809312020E94BE01892B31F481E090E000
:100EC00090931C0280931B020E94FD02F2E02F2EE1
:100ED000312C01E0EE24EA94F12C0E94C4026093CC
:100EE0001D0270931E0280931F0290932002609156
:100EF000040170E086E00E944E028EE00E94AD0286
:100F00002091F5013091F601821B930B9595879501
:100F100095958795820F931F9093F6018093F50125
:100F20004091F1015091F2016091F3017091F4014F
:100F30004F5F5F4F6F4F7F4F4093F1015093F2012E
:100F40006093F3017093F401483E534061057105CD
:100F5000C0F1813233E09307DCF030921C02209222
:100F60001B0210920F0210920E02109211021092A8
:100F70001002109213021092120280ED91E00E9472
:100F80000E048091F5019091F6010E941E0411C09B
:100F9000893D42E094071CF0109204010AC0893A8E
:100FA000924024F0B4E6B093040103C02FEF2093E5
:100FB00004011092F1011092F2011092F3011092CB
:100FC000F40181E10E94AD022091140230911502DA
:100FD000821B930B2C015594479455944794420ED1
:100FE000531E509215024092140280E10E94AD02FD
:100FF0004091160250911702841B950B3C01759489
:10100000679475946794640E751E709217026092CF
:1010100016028FE00E94AD02C0901802D090190213
:101020008C199D099595879595958795C80ED91E1C
:10103000D0921902C09218020E94BE0111E0892BC1
:1010400009F410E080911B0290911C0281309105FF
:1010500009F4D5C18230910509F4FDC1892B09F04D
:1010600010C28091060281110AC080910201909104
:101070000301909305028093040200930602C0E0EE
:10108000D4E0C419D509D0930301C0930201809123
:10109000040290910502DE01A81BB90BCD01B7FF38
:1010A00003C0919581959109039714F00E94FD0268
:1010B000D0930502C0930402B4ED6B16B3E07B0637
:1010C00064F477FE03C023E0620E711C759467948C
:1010D00075946794D62DD09501C0DAE0D0930101C4
:1010E0003CEFC31633E0D30664F4D7FE03C043E0FD
:1010F000C40ED11CD594C794D594C794CC2DC0955B
:1011000001C0C0E0C093000180910302882309F46C
:1011100099C040911D0250911E0260911F02709172
:1011200020028091FF0190910002A0910102B091F4
:10113000020284179507A607B70708F083C00E942C
:10114000FF0ADD2309F46DC02FEF30E040E050E0EE
:101150000E94700B262F862F6BE20E949A0A382F6E
:1011600045ED4303D0011124A20FB11D9A2F990F11
:10117000A90FAA0F6C2F70E0ED2FF0E097012E1B46
:101180003F0B629FA001639F500D729F500D112471
:10119000952FDA9F90011124232F330F330B670112
:1011A000C21AD30A6C9D90016D9D300D7C9D300D4F
:1011B00011246701CA1AD108EC9DD001ED9DB00D34
:1011C000FC9DB00D1124EB2FFF27E7FDFA95D70109
:1011D000AE1BBF0B6A9FF0016B9FF00D7A9FF00D65
:1011E00011247F2F823081F038F48823B9F08130C8
:1011F00099F47C2FC32F12C0833051F0843061F4F6
:101200009C2FCF2F752F0AC07C2FC52F9F2F06C074
:10121000732F9C2FC52F02C0752F932F6C2FC92FB2
:1012200002C07C2F6C2F8C2F0E94E9020E94C40206
:101230006093F7017093F8018093F9019093FA019C
:101240000E94FD0240911D0250911E0260911F02FA
:10125000709120028091FB019091FC01A091FD0111
:10126000B091FE0184179507A607B70728F460E040
:1012700070E080E00E94E902212F30E080911A02A4
:1012800090E0281739070CF0FCC00E94C40280903F
:10129000C4029090C502A090C602B090C7022B0174
:1012A0003C01481859086A087B080E94C4026093F0
:1012B000C4027093C5028093C6029093C7028091C6
:1012C000BE029091BF02A091C002B091C1028415EC
:1012D0009505A605B70548F41092C8021092C902F8
:1012E0001092CA021092CB02CCC08091C802909199
:1012F000C902A091CA02B091CB020097A105B10525
:10130000A9F481E090E0A0E0B0E08093C80290935F
:10131000C902A093CA02B093CB024092CC02509271
:10132000CD026092CE027092CF0261C08090CC025A
:101330009090CD02A090CE02B090CF020197A1056F
:10134000B105C9F482E090E0A0E0B0E08093C8026B
:101350009093C902A093CA02B093CB024092D002EC
:101360005092D1026092D2027092D302480C591C62
:101370006A1C7B1C38C02091D0023091D102409170
:10138000D2025091D302A3E0B0E00E948F0BDC01A7
:10139000CB0162E0B695A795979587956A95D1F7A9
:1013A000A501940172E056954795379527957A9552
:1013B000D1F7820F931FA41FB51F8093CC02909387
:1013C000CD02A093CE02B093CF024092D0025092B1
:1013D000D1026092D2027092D302840D951DA61D97
:1013E000B71D2C013D017694679457944794E09182
:1013F000C202F091C302C301B201099542C0B20119
:1014000057FE02C06D5F7F4F75956795759567951F
:1014100077FE03C093E0690E711C75946794759410
:101420006794D7FE03C0A3E0CA0ED11CC6019595F0
:10143000879595958795762D0E94E902212F30E0BA
:1014400080911A0290E028173907DCF430921C02D0
:1014500020921B0216C07091100260910E028091C2
:1014600012020E94E902212F30E080911A0290E0DE
:101470002817390734F421E030E030931C02209320
:101480001B0210931A0281E292E00E94EB00892B6A
:1014900009F44DC081E292E00E94C9001092D4028A
:1014A00018161906B4F58A30910599F1E091DE021B
:1014B0008D309105A9F4F0E0EC52FD4F13861092A7
:1014C000DE021092DA021092D9020093DD0200933C
:1014D000D4028FED92E09093D8028093D70219C086
:1014E000AE2FB0E0AC52BD4F1B968C93EF5FE093F4
:1014F000DE0280912003E81760F01092DE02109265
:10150000D8021092D7021092DA021092D9020093F8
:10151000DD028091D402813009F0B5CFE091D5028F
:10152000F091D602309709F4AECF0995ACCF0E9466
:101530008B01D3CC991B79E004C0991F961708F052
:10154000961B881F7A95C9F780950895EE0FFF1FA7
:101550000590F491E02D099481E090E0F8940C94CA
:10156000D30B8F929F92AF92BF92CF92DF92EF9266
:10157000FF92CF93DF93EC01688179818A819B810F
:10158000611571058105910521F464E279ED8BE522
:1015900097E02DE133EF41E050E00E94700B4901EC
:1015A0005A019B01AC01A7EAB1E40E948F0B6B01C9
:1015B0007C01ACEEB4EFA50194010E949D0BDC010F
:1015C000CB018C0D9D1DAE1DBF1DB7FF03C0019744
:1015D000A109B04888839983AA83BB83BC01CD014C
:1015E0009F77DF91CF91FF90EF90DF90CF90BF90EA
:1015F000AF909F908F9008950E94B10A089585E062
:1016000091E00E94B10A089560930501709306016C
:1016100080930701909308010895FC01882799277A
:10162000E89421912032E9F3293010F02E30C8F3EC
:101630002B3241F02D3239F4689404C00E94520BD1
:10164000820F911D219120532A30C0F31EF49095F2
:1016500081959F4F0895FA01A191B081009719F4E7
:101660001097E1F0CD01DC01CD010D90002011F4C7
:10167000C00113C0FB012191222319F02015D9F7D5
:10168000F3CFFB012191201519F41E92119606C08B
:101690002223C1F70D900020A1F7D001FA01A193F8
:1016A000B08308957AE0979F902D879F802D910DAC
:1016B00011240895F999FECF92BD81BDF89A99271A
:1016C00080B50895262FF999FECF1FBA92BD81BD2E
:1016D00020BD0FB6F894FA9AF99A0FBE01960895B4
:1016E000052E97FB1EF400940E94870B57FD07D030
:1016F0000E94A20B07FC03D04EF40C94870B50956C
:101700004095309521953F4F4F4F5F4F08959095ED
:101710008095709561957F4F8F4F9F4F08950E94E0
:10172000C40BA59F900DB49F900DA49F800D911D9B
:1017300011240895B7FF0C948F0B0E948F0B821B0E
:10174000930B0895A1E21A2EAA1BBB1BFD010DC02D
:10175000AA1FBB1FEE1FFF1FA217B307E407F50761
:1017600020F0A21BB30BE40BF50B661F771F881F3D
:10177000991F1A9469F760957095809590959B01D3
:10178000AC01BD01CF010895A29FB001B39FC0017C
:10179000A39F700D811D1124911DB29F700D811D9D
:0A17A0001124911D0895F894FFCF65
:1017AA00FFFF0002FF010000000000000022019E6E
:1017BA0000EB00C900DD0069010D0A0046414E3AFE
:1017CA00005245534554494E47004D4F44453A004F
:1017DA00434F4C4F523A0077726974696E672045DD
:1017EA004550524F4D212000446F6E6500482048F5
:1017FA00656C7000522052657365740043203C7218
:10180A003E203C673E203C623E20436F6C6F722054
:10181A0072656420677265656E20626C7565004D3D
:10182A00203C302D323E204D6F6465207061727409
:10183A00792C20616E616C6F672072656D6F7465BB
:10184A000053205361766520746F20656570726F4E
:10185A006D0047204765742066726F6D206565705C
:10186A00726F6D00504C3A00504D3A0050523A0097
:10187A005465726D616C2073687574646F776E2C31
:04188A0020543A00AC
:00000001FF
