:100000000C9462000C948A000C948A000C948A0070
:100010000C948A000C948A000C948A000C948A0038
:100020000C948A000C948A000C948A000C948A0028
:100030000C948A000C948A000C948A000C948A0018
:100040000C94A5050C948A000C9413060C94ED05F1
:100050000C948A000C948A000C948A000C948A00F8
:100060000C948A000C948A000000000024002700F1
:100070002A0000000000250028002B0000000000DE
:1000800023002600290004040404040404040202DA
:100090000202020203030303030301020408102007
:1000A0004080010204081020010204081020000012
:1000B0000008000201000003040700000000000027
:1000C0000000A10611241FBECFEFD8E0DEBFCDBFD8
:1000D00011E0A0E0B1E0E2E2F8E102C005900D928B
:1000E000A63EB107D9F723E0A6EEB1E001C01D920C
:1000F000A332B207E1F710E0C2E6D0E004C02197D6
:10010000FE010E948D0AC136D107C9F70E94A506DB
:100110000C94FD0B0C9400000895833081F028F4BA
:10012000813099F08230A9F008958730A9F08830A5
:10013000C9F08430B1F4809180008F7D03C080913C
:1001400080008F7780938000089584B58F7784BD79
:10015000089584B58F7DFBCF8091B0008F77809319
:10016000B00008958091B0008F7DF9CFCF93DF93D9
:10017000E0ECF0E08491ECEAF0E0D491E8E9F0E022
:10018000C491CC23A1F081110E948D00EC2FF0E0EE
:10019000EE0FFF1FE458FF4FA591B491EC91ED23B2
:1001A00081E090E009F480E0DF91CF91089580E054
:1001B00090E0FACF1F93CF93DF93162F282F30E0D4
:1001C000F901E255FF4F8491F901E656FF4FD491B2
:1001D000F901EA57FF4FC491CC23A1F081110E948D
:1001E0008D00EC2FF0E0EE0FFF1FEE58FF4FA591B2
:1001F000B4918FB7F894EC91111108C0D095DE231B
:10020000DC938FBFDF91CF911F910895DE2BF8CF44
:10021000CF93DF9390E0FC01E656FF4F24918A577D
:100220009F4FFC0184918823C9F090E0880F991FAB
:10023000FC01E859FF4FA591B491FC01EE58FF4F26
:10024000C591D49161110DC09FB7F8948C91209500
:1002500082238C938881282328839FBFDF91CF91AD
:100260000895623051F49FB7F8943C91822F8095A5
:1002700083238C93E8812E2BEFCF8FB7F894EC91EA
:100280002E2B2C938FBFEACF1F93CF93DF93182F82
:10029000EB0161E00E940801209739F460E0812FB2
:1002A000DF91CF911F910C94DA00CF3FD10511F46B
:1002B00061E0F5CFE12FF0E0E255FF4FE491E3304C
:1002C00031F140F4E130B1F0E230E1F0C038D10575
:1002D0002CF3EECFE73029F1E83059F1E430B1F7F3
:1002E00080918000806280938000D0938B00C093C7
:1002F0008A0004C084B5806884BDC7BDDF91CF91FA
:100300001F91089584B5806284BDC8BDF7CF8091E8
:100310008000806880938000D0938900C09388001B
:10032000EDCF8091B00080688093B000C093B3009F
:10033000E5CF8091B00080628093B000C093B4009C
:10034000DDCF8E50806480937C0080917A00806441
:1003500080937A0080917A0086FDFCCF80917800AE
:10036000909179000895789484B5826084BD84B5B5
:10037000816084BD85B5826085BD85B5816085BDA0
:10038000EEE6F0E0808181608083E1E8F0E01082B9
:10039000808182608083808181608083E0E8F0E0FA
:1003A000808181608083E1EBF0E0808184608083E4
:1003B000E0EBF0E0808181608083EAE7F0E080811B
:1003C000846080838081826080838081816080837B
:1003D0008081806880831092C10008953FB7F894AF
:1003E0008091350290913602A0913702B091380287
:1003F00026B5A89B05C02F3F19F00196A11DB11D80
:100400003FBFBA2FA92F982F8827BC01CD01620FBB
:10041000711D811D911D42E0660F771F881F991F76
:100420004A95D1F70895CF92DF92EF92FF920E9402
:10043000EE016B017C010E94EE016C197D098E09B1
:100440009F09683E734081059105A8F3FF90EF90E6
:10045000DF90CF900895CF92DF92EF92FF920F93AB
:100460001F93CF93DF937C016A0110E000E00C152D
:100470001D0581F0EB01D701ED91FC910190F08118
:10048000E02D6991C7010995892B21F00F5F1F4F5E
:10049000BE01EDCFC801DF91CF911F910F91FF9069
:1004A000EF90DF90CF900895FC01538D448D252F60
:1004B00030E0842F90E0821B930B541710F0CF96FE
:1004C000089501970895FC01918D828D981761F030
:1004D000A28DAE0FBF2FB11D5D968C91928D9F5F47
:1004E0009F73928F90E008958FEF9FEF0895FC0126
:1004F000918D828D981731F0828DE80FF11D858DD9
:1005000090E008958FEF9FEF0895FC01918D228D6B
:10051000892F90E0805C9F4F821B91098F739927F0
:10052000089586E892E00E94850221E0892B09F473
:1005300020E0822F0895FC01A48DA80FB92FB11DD2
:10054000A35ABF4F2C91848D90E001968F73992709
:10055000848FA689B7892C93A089B1898C918370E7
:1005600080648C93938D848D981306C00288F389E0
:10057000E02D80818F7D80830895EF92FF920F930D
:100580001F93CF93DF93EC01F62E81E0888F9B8D34
:100590008C8D98131AC0E889F989808185FF15C070
:1005A0009FB7F894EE89FF896083E889F989808193
:1005B0008370806480839FBF81E090E0DF91CF9162
:1005C0001F910F91FF90EF9008950B8D10E00F5F3A
:1005D0001F4F0F731127E02E8C8D8E110CC00FB69C
:1005E00007FCFACFE889F989808185FFF5CFCE0134
:1005F0000E949B02F1CFEB8DEC0FFD2FF11DE35A12
:10060000FF4FF0829FB7F8940B8FEA89FB898081B6
:100610008062D0CFCF93DF93EC01888D8823B9F02F
:10062000AA89BB89E889F9898C9185FD03C08081FD
:1006300086FD0DC00FB607FCF7CF8C9185FFF2CF7A
:10064000808185FFEDCFCE010E949B02E9CFDF9133
:10065000CF91089580E090E0892B29F00E949102CB
:1006600081110C9400000895CF93DF93D72FC82FEA
:1006700070E089E00E9444016D2F70E08AE00E94E2
:1006800044016C2F70E08BE0DF91CF910C9444011A
:100690008F929F92AF92BF92CF92DF92EF92FF9292
:1006A000C090E601D090E701E090E801F090E90108
:1006B0008090F0019090F101A090F201B090F301D0
:1006C000A0910201B0910301A70196010E94C40B01
:1006D0002AE096958795779567952A95D1F7680DC5
:1006E000791D8A1D9B1D6093F4017093F501809321
:1006F000F6019093F701C80CD91CEA1CFB1CC092B0
:10070000F801D092F901E092FA01F092FB01FF901A
:10071000EF90DF90CF90BF90AF909F908F90089513
:10072000CF92DF92EF92FF926B017C018091FC01EE
:1007300081110DC081E08093FC010E94EE01609365
:10074000F0017093F1018093F2019093F301C09254
:10075000E601D092E701E092E801F092E901FF9012
:10076000EF90DF90CF900C944803009799F0FC0134
:1007700001900020E9F73197AF01481B590BE09138
:100780008602F09187020280F381E02DBC0186E8A9
:1007900092E0099490E080E008958F929F92AF924A
:1007A000BF92CF92DF92EF92FF920F931F93CF935E
:1007B000DF93CDB7DEB7A1970FB6F894DEBF0FBEBB
:1007C000CDBF6B017C0119A2423008F44AE08E01D2
:1007D0000F5D1F4F842E912CB12CA12CC701B601A7
:1007E000A50194010E94CC0B6A3014F5605DF801FC
:1007F00062938F01C814D904EA04FB04B0F4CF015A
:100800000E94B503A1960FB6F894DEBF0FBECDBF10
:10081000DF91CF911F910F91FF90EF90DF90CF90DC
:10082000BF90AF909F908F90089569017A01D6CFC5
:10083000695CDDCFCF92DF92EF92FF92CF93DF938F
:100840006B017C01E0918602F09187020190F081BA
:10085000E02D6DE286E892E00995EC0166277727A6
:10086000CB016C197D098E099F094AE00E94CD03D6
:100870008C0F9D1FDF91CF91FF90EF90DF90CF9075
:1008800008950C94B503CF93DF930E94B503EC0158
:100890008BE191E00E94B5038C0F9D1FDF91CF91FA
:1008A0000895CF93DF93BC01990F880B990B97FFA5
:1008B0000CC00E941A04EC018BE191E00E94B50388
:1008C0008C0F9D1FDF91CF9108954AE00E94CD03C8
:1008D000F2CFBC01990F880B990B97FD0C941A0469
:1008E0004AE00C94CD0380913902882311F18130C4
:1008F000E9F482E08093390284E492E0209142029C
:10090000222351F04EE352E060E472E00E94550B66
:1009100090933D0280933C0280913C0290913D0275
:10092000892B39F01092420281E0089590E080E036
:10093000E5CF80E008950E947304882349F081E0A8
:100940008093420280913C0290913D020C94370BBF
:1009500090E080E008950C94840BCF93C1E00E9456
:100960007304882309F4EFC00E9473048823B9F349
:10097000C0934202E0913C02F0913D02E081E354D9
:10098000E23168F70E2E000CFF0BE150F44F0C948F
:100990008D0A0E949B04809304018EE191E00E94E5
:1009A00041046091040170E090E080E04AE00E9420
:1009B000CD038BE191E00E94B503D1CF83E291E0BA
:1009C0000E9443040E9413020C94001CC8CF809123
:1009D0002A0290912B020E9451040E949B04909342
:1009E0002B0280932A028CE291E00E9441048091C4
:1009F0002A0290912B020E945104B1CF0E949B04C5
:100A000090930802809307020E949B0490930A022D
:100A1000809309020E949B0490930C0280930B0226
:100A200082E391E00E944104609107027091080204
:100A300090E080E04AE00E94CD0388E491E00E94CB
:100A400041046091090270910A0290E080E04AE05E
:100A50000E94CD0388E491E00E94410460910B0262
:100A600070910C02A1CF89E391E00E944104609152
:100A7000070290E080E00E948C0B6091090281E007
:100A800090E00E948C0B60910B0282E090E00E944B
:100A90008C0B8AE491E00E94430461CF90E080E0F7
:100AA0000E94AB0490E0909308028093070281E0DB
:100AB00090E00E94AB0490E090930A0280930902B8
:100AC00082E090E00E94AB0490E0A6CF8FE491E03A
:100AD0000E94430486E591E00E9443048EE591E084
:100AE0000E94430481E891E00E94430483EA91E07C
:100AF0000E94430484EB91E0CECF86EC91E00E940B
:100B0000410480910D0290910E020E9469048AECCA
:100B100091E00E94410480910F02909110020E9486
:100B200069048EEC91E00E94410480911102909141
:100B3000120261CF83EE91E00E9441048091EE01A8
:100B40009091EF0158CFCF9108951F921FB61F9239
:100B500011242F933F938F939F93AF93BF938091D3
:100B6000310290913202A0913302B091340230915F
:100B7000300223E0230F2D3750F50196A11DB11D42
:100B8000209330028093310290933202A09333027B
:100B9000B09334028091350290913602A0913702D1
:100BA000B09138020196A11DB11D8093350290933A
:100BB0003602A0933702B0933802BF91AF919F9154
:100BC0008F913F912F911F901FBE1F90189526E87F
:100BD000230F0296A11DB11DD3CF1F920F920FB606
:100BE0000F9211242F933F934F935F936F937F93B3
:100BF0008F939F93AF93BF93EF93FF9386E892E019
:100C00000E949B02FF91EF91BF91AF919F918F91B5
:100C10007F916F915F914F913F912F910F900FBEF8
:100C20000F901F9018952F932FB72F938F939F930B
:100C3000EF93FF93E0919602F09197028081E0910B
:100C40009C02F0919D0282FD19C0908180919F02CB
:100C50008F5F8F732091A002821741F0E0919F0275
:100C6000F0E0EA57FD4F958F80939F02FF91EF913F
:100C70009F918F912F912FBF2F9118958081F6CF43
:100C8000E6E8F2E01382128288EE93E0A0E0B0E0A2
:100C900084839583A683B7838DE091E091838083DD
:100CA00085EC90E09587848784EC90E09787868731
:100CB00080EC90E0918B808B81EC90E0938B828B29
:100CC00082EC90E0958B848B86EC90E0978B868B02
:100CD000118E128E138E148E0895E9E3F2E01282C3
:100CE000118280E28783108680E4809384028FE300
:100CF00080938502128610821482138216821582D6
:100D000081E08187E3E1F2E080E894E8AEE1B0E0E1
:100D100080839183A283B38380E993E09583848366
:100D200016821782108611861286138614861586FF
:100D300016861786108A118A128A138A148A158ACF
:100D400008950E9440060C946D060E94B301E09144
:100D50009602F091970282E08083E0919602F091F2
:100D600097021082E0919202F09193021082E0913A
:100D70009402F091950280E1808310929E02E091AE
:100D80009A02F0919B0286E08083E0919802F091B4
:100D90009902808180618083E0919802F0919902AC
:100DA000808188608083E0919802F091990280812F
:100DB00080688083E0919802F091990280818F7D14
:100DC00080838DEA94E090933B0280933A02809175
:100DD0008100887F8160809381008091B100887F4D
:100DE00081608093B10062E082E10E94080161E0CD
:100DF00089E00E94080160E089E00E94DA0061E079
:100E00008AE00E94080160E08AE00E94DA0061E066
:100E10008BE00E94080160E08BE00E94DA0061E054
:100E200086E00E9408016FEF70E086E00E944401B6
:100E300061E08CE00E94080161E08CE00E94DA0031
:100E400060E08EE00E94080162E082E00E940801FA
:100E500090E080E00E94AB0490E0909308028093C1
:100E6000070281E090E00E94AB0490E090930A02B8
:100E70008093090282E090E00E94AB0490E090939E
:100E80000C0280930B020E94B600892B31F481E0A2
:100E900090E090932B0280932A020E944803812CB9
:100EA00074E0972ECC24CA94D12CF2E02F2E312C52
:100EB000AA24A3940E94EE0160932C0270932D0249
:100EC00080932E0290932F026091040170E086E0DF
:100ED0000E9444018EE00E94A1012091EE01309118
:100EE000EF01821B930B9595879595958795820FBA
:100EF000931F9093EF018093EE014091EA0150918E
:100F0000EB016091EC017091ED014F5F5F4F6F4F0E
:100F10007F4F4093EA015093EB016093EC01709393
:100F2000ED01483E53406105710538F1853833E0E5
:100F300093070CF4AFC030922B0220922A02109239
:100F400008021092070210920A02109209021092EF
:100F50000C0210920B0282ED91E00E9441048091FC
:100F6000EE019091EF010E9451041092EA0110925B
:100F7000EB011092EC011092ED0181E10E94A101C0
:100F800060910D0270910E027C01E61AF70AF59449
:100F9000E794F594E794E60EF71EF0920E02E092C5
:100FA0000D0280E10E94A10120910F0230911002F8
:100FB0008C01021B130B1595079515950795020FCC
:100FC000131F1093100200930F028FE00E94A101E3
:100FD0002091110230911202EC01C21BD30BD59566
:100FE000C795D595C795C20FD31FD0931202C09352
:100FF00011020E94B600BB24B394892B09F4B12CD2
:1010000080912A0290912B028130910509F41CC233
:10101000009709F451C0029709F43BC2B09229022B
:1010200086E892E00E948502892B09F45DC286E879
:1010300092E00E9463021092390218161906F4F425
:101040008A309105D9F020914302E22FF0E0E75C6D
:10105000FD4F8D30910509F030C213861092430286
:1010600010923F0210923E02A0924202A0923902D8
:10107000E4E4F2E0F0933D02E0933C028091390217
:10108000813071F6E0913A02F0913B02309741F2E3
:101090000995C6CF813243E0940724F08FEF809307
:1010A000040163CF8D3B924024F0B6E9B093040174
:1010B0005CCF1092040159CF8091FF0181110AC0C9
:1010C00080910201909103019093FE018093FD01B4
:1010D000A092FF01F401EE19FF097F01F0930301D3
:1010E000E09302018091FD019091FE019F01281B78
:1010F000390BC90137FF03C0919581959109039779
:1011000014F00E944803F092FE01E092FD01043DBC
:1011100033E013070CF0F2C017FF02C00D5F1F4F42
:101120001595079515950795009500930101CC3FFE
:1011300043E0D4070CF0E4C0D7FD2396D595C795BE
:10114000D595C795C095C09300018091FC01882377
:1011500009F485C040912C0250912D0260912E021D
:1011600070912F028091F8019091F901A091FA01FC
:10117000B091FB0184179507A607B70708F06FC069
:101180000E94DF0A002309F4D4C02FEF30E040E0D2
:1011900050E00E949A0B262F862F6BE20E94810A54
:1011A000382F45ED4303B0011124620F711D962FB6
:1011B000990F690F660F4C2F50E0E02FF0E0D60139
:1011C000AE1BBF0BA49F9001A59F300DB49F300DA7
:1011D0001124732F069F80011124012F110F110B71
:1011E000D601A01BB10B8D01049FD001059FB00D4E
:1011F000149FB00D11249B2F7601E61AF108EE9E84
:101200008001EF9E100DFE9E100D1124012F110F75
:10121000110BF601E01BF10B8F01049FF001059FFC
:10122000F00D149FF00D1124823009F473C008F002
:1012300069C0882309F472C0813009F472C06C2F30
:10124000892F0E9434030E94EE016093F001709395
:10125000F1018093F2019093F3010E9448034091C1
:101260002C0250912D0260912E0270912F028091DC
:10127000F4019091F501A091F601B091F701841766
:101280009507A607B70728F460E070E080E00E94A9
:10129000340380912902B81608F0C0CE0E94EE01F6
:1012A0000091190210911A0220911B0230911C0228
:1012B0002B013C01401A510A620A730A0E94EE0196
:1012C0006093190270931A0280931B0290931C0280
:1012D0008091130290911402A0911502B091160210
:1012E00084159505A605B70538F510921D021092D4
:1012F0001E0210921F021092200290CE0AE015CF1B
:10130000C0E021CF833089F0843009F098CF9C2F42
:10131000CF2F95CF9F2F7C2FC32F91CF932F7F2F30
:101320008ECF7C2FCB2F932F8ACF9C2FC32F7B2F39
:1013300086CF9C2F7C2F83CF80911D0290911E021F
:10134000A0911F02B09120020097A105B105E1F420
:1013500081E090E0A0E0B0E080931D0290931E0237
:10136000A0931F02B09320024092210250922202C9
:101370006092230270922402E0911702F091180209
:10138000C301B20109954ACEE0902102F0902202F9
:1013900000912302109124020197A105B105E9F4FF
:1013A00082E090E0A0E0B0E080931D0290931E02E6
:1013B000A0931F02B0932002409225025092260271
:1013C00060922702709228024E0C5F1C601E711EF4
:1013D0007694679457944794CFCF2091250230910B
:1013E00026024091270250912802A3E0B0E00E941B
:1013F000B90BAB01BC01E2E076956795579547952F
:10140000EA95D1F7D801C701F2E0B695A79597956F
:101410008795FA95D1F7840F951FA61FB71F809364
:10142000210290932202A0932302B09324024092BF
:101430002502509226026092270270922802480EDE
:10144000591E6A1E7B1EC4CFB701F7FE02C06D5F36
:101450007F4F759567957595679517FF02C00D5F6E
:101460001F4F1595079515950795D7FD2396D5958B
:10147000C795D595C795702F8C2F0E943403809106
:101480002902B81608F0CACD30922B0220922A0207
:10149000C5CD709109026091070280910B020E94F4
:1014A000340380912902B81608F0B8CDA1E0B0E06D
:1014B000B0932B02A0932A02B1CD8387E1E0E20F23
:1014C000E093430280918502E81708F4D7CD10928B
:1014D000430210923D0210923C0210923F02109281
:1014E0003E02A0924202CACD20E030E0232B09F454
:1014F000E1CC0E949102882309F4DACC0E9400001A
:10150000D7CC991B79E004C0991F961708F0961B59
:10151000881F7A95C9F780950895EE0FFF1F0590F3
:10152000F491E02D09948F929F92AF92BF92CF9247
:10153000DF92EF92FF92CF93DF93EC016881798184
:101540008A819B81611571058105910521F464E211
:1015500079ED8BE597E02DE133EF41E050E00E941B
:101560009A0B49015A019B01AC01A7EAB1E40E9420
:10157000B90B6B017C01ACEEB4EFA50194010E94A4
:10158000C70BC60ED71EE81EF91EF7FE06C081E087
:10159000C81AD108E10880E8F80AC882D982EA822C
:1015A000FB82C701B6019F77DF91CF91FF90EF904B
:1015B000DF90CF90BF90AF909F908F9008958F92C3
:1015C0009F92AF92BF92CF92DF92EF92FF92609183
:1015D0000501709106018091070190910801611544
:1015E00071058105910521F464E279ED8BE597E0C1
:1015F0002DE133EF41E050E00E949A0B49015A017E
:101600009B01AC01A7EAB1E40E94B90B6B017C011C
:10161000ACEEB4EFA50194010E94C70BC60ED71E15
:10162000E81EF91EF7FE06C081E0C81AD108E108DD
:1016300080E8F80AC0920501D0920601E092070105
:10164000F0920801C701B6019F77FF90EF90DF90FD
:10165000CF90BF90AF909F908F90089560930501B9
:101660007093060180930701909308010895FC018F
:1016700088279927E89421912032E9F3293010F046
:101680002E30C8F32B3241F02D3239F4689404C067
:101690000E947C0B820F911D219120532A30C0F3B0
:1016A0001EF4909581959F4F0895FA01A191B08104
:1016B000009719F41097E1F0CD01DC01CD010D90F8
:1016C000002011F4C00113C0FB012191222319F065
:1016D0002015D9F7F3CFFB012191201519F41E92A3
:1016E000119606C02223C1F70D900020A1F7D0016A
:1016F000FA01A193B08308957AE0979F902D879F78
:10170000802D910D11240895F999FECF92BD81BDD0
:10171000F89A992780B50895262FF999FECF1FBA18
:1017200092BD81BD20BD0FB6F894FA9AF99A0FBE0A
:1017300001960895052E97FB1EF400940E94B10BAC
:1017400057FD07D00E94CC0B07FC03D04EF40C943D
:10175000B10B50954095309521953F4F4F4F5F4FBE
:10176000089590958095709561957F4F8F4F9F4F0D
:1017700008950E94EE0BA59F900DB49F900DA49F1D
:10178000800D911D11240895B7FF0C94B90B0E9490
:10179000B90B821B930B0895A1E21A2EAA1BBB1B47
:1017A000FD010DC0AA1FBB1FEE1FFF1FA217B3072D
:1017B000E407F50720F0A21BB30BE40BF50B661F43
:1017C000771F881F991F1A9469F760957095809507
:1017D00090959B01AC01BD01CF010895A29FB0017E
:1017E000B39FC001A39F700D811D1124911DB29F55
:1017F000700D811D1124911D0895F894FFCFFE04F2
:10180000AF04AF04C9044E056605AF04AF04AF04CE
:10181000AF04E704AF04AF047D05AF04DE04330575
:021820009A0527
:10182200FFFF0002FF0100000000000000BD022BCC
:101832000254020A038502630277020D0A0046413E
:101842004E3A005245534554494E47004D4F444588
:101852003A00434F4C4F523A0077726974696E678F
:1018620020454550524F4D212000446F6E6500487F
:101872002048656C700052205265736574004320E5
:101882003C723E203C673E203C623E20436F6C6FC0
:10189200722072656420677265656E20626C756580
:1018A200004D203C302D323E204D6F64652070612A
:1018B2007274792C20616E616C6F672072656D6F36
:1018C20074650053205361766520746F20656570DE
:1018D200726F6D0047204765742066726F6D2065D8
:1018E2006570726F6D00504C3A00504D3A00505284
:1018F2003A005465726D616C2073687574646F7719
:061902006E2C20543A0097
:107800000C94343C0C94513C0C94513C0C94513CE1
:107810000C94513C0C94513C0C94513C0C94513CB4
:107820000C94513C0C94513C0C94513C0C94513CA4
:107830000C94513C0C94513C0C94513C0C94513C94
:107840000C94513C0C94513C0C94513C0C94513C84
:107850000C94513C0C94513C0C94513C0C94513C74
:107860000C94513C0C94513C11241FBECFEFD8E036
:10787000DEBFCDBF11E0A0E0B1E0ECE9FFE702C060
:1078800005900D92A230B107D9F712E0A2E0B1E065
:1078900001C01D92AD30B107E1F70E942D3D0C945F
:1078A000CC3F0C94003C982F959595959595959582
:1078B000905D8F708A307CF0282F295A8091C0000B
:1078C00085FFFCCF9093C6008091C00085FFFCCF60
:1078D0002093C6000895282F205DF0CF982F809127
:1078E000C00085FFFCCF9093C6000895EF92FF92F1
:1078F0000F931F93EE24FF2487018091C00087FD22
:1079000017C00894E11CF11C011D111D81E4E8164B
:1079100082E4F8068FE0080780E0180770F3E09132
:107920000401F091050109958091C00087FFE9CF1E
:107930008091C6001F910F91FF90EF9008950E94D3
:10794000763C982F8091C00085FFFCCF9093C600B5
:1079500091362CF490330CF09053892F089597555D
:10796000892F08951F930E949F3C182F0E949F3CCF
:107970001295107F810F1F9108951F93182F882350
:1079800021F00E94763C1150E1F71F9108951F935A
:10799000182F0E94763C803249F0809103018F5F5E
:1079A000809303018530C1F01F9108958091C0003C
:1079B00085FFFCCF84E18093C6008091C00085FFE5
:1079C000FCCF1093C6008091C00085FFFCCF80E102
:1079D0008093C6001F910895E0910401F091050184
:1079E00009951F9108950E94763C803241F0809164
:1079F00003018F5F80930301853081F008958091AA
:107A0000C00085FFFCCF84E18093C6008091C00058
:107A100085FFFCCF80E18093C6000895E0910401CA
:107A2000F09105010995089540E951E08823A1F0FE
:107A30002D9A28EE33E0FA013197F1F721503040CA
:107A4000D1F72D9828EE33E0FA013197F1F7215064
:107A50003040D1F7815061F708953F924F925F9285
:107A60006F927F928F929F92AF92BF92CF92DF924E
:107A7000EF92FF920F931F93CF93DF93000080E16B
:107A80008093C4001092C50088E18093C10086E015
:107A90008093C2005098589A259A81E00E94143D24
:107AA00024E1F22E9EE1E92E85E9D82E0FE0C02ECA
:107AB00010E1B12EAA24A394B1E49B2EA6E58A2E50
:107AC000F2E57F2EE0E26E2E79E4572E63E5462E36
:107AD00050E5352E0E94763C8033B1F18133B9F107
:107AE000803409F46FC0813409F476C0823409F41B
:107AF00085C0853409F488C0803531F1823521F1A3
:107B0000813511F1853509F485C0863509F48DC0BC
:107B1000843609F496C0843709F403C1853709F423
:107B200072C1863709F466C0809103018F5F80932C
:107B30000301853079F6E0910401F0910501099582
:107B40000E94763C803351F60E94F33CC3CF0E94E2
:107B5000763C803249F78091C00085FFFCCFF092DF
:107B6000C6008091C00085FFFCCF9092C600809136
:107B7000C00085FFFCCF8092C6008091C00085FFC9
:107B8000FCCF7092C6008091C00085FFFCCF609250
:107B9000C6008091C00085FFFCCF5092C600809146
:107BA000C00085FFFCCF4092C6008091C00085FFD9
:107BB000FCCF3092C6008091C00085FFFCCFB09210
:107BC000C60088CF0E94763C863808F4BDCF0E945C
:107BD000763C0E94F33C7ECF0E94763C803809F4CC
:107BE0009CC0813809F40BC1823809F43CC1883942
:107BF00009F48FC080E00E94C73C6CCF84E10E94F2
:107C0000BD3C0E94F33C66CF85E00E94BD3C0E94D3
:107C1000F33C60CF0E94763C809306010E94763C44
:107C2000809307010E94F33C55CF0E94763C80333D
:107C300009F41DC183E00E94BD3C80E00E94C73C66
:107C400049CF0E94763C809309020E94763C809343
:107C5000080280910C028E7F80930C020E94763C79
:107C6000853409F415C18091080290910902892B8D
:107C700089F000E010E00E94763CF801E85FFE4FDA
:107C800080830F5F1F4F80910802909109020817AF
:107C9000190788F30E94763C803209F045CF809125
:107CA0000C0280FF01C16091060170910701660F0F
:107CB000771F7093070160930601A0910802B091AD
:107CC00009021097C9F0E8E0F1E09B01AD014E0F09
:107CD0005F1FF999FECF32BD21BD819180BDFA9A17
:107CE000F99A2F5F3F4FE417F50799F76A0F7B1F4B
:107CF00070930701609306018091C00085FFFCCF5F
:107D0000F092C6008091C00085FFFCCFB092C60003
:107D1000E1CE83E00E94C73CDDCE82E00E94C73CFA
:107D2000D9CE0E94763C809309020E94763C8093D3
:107D300008028091060190910701880F991F909386
:107D40000701809306010E94763C853409F4A6C0A1
:107D500080910C028E7F80930C020E94763C8032D0
:107D600009F0B8CE8091C00085FFFCCFF092C6002C
:107D7000609108027091090261157105B9F140E046
:107D800050E080910C02A82FA170B82FB27011C0E2
:107D9000BB2309F45CC0E0910601F0910701319624
:107DA000F0930701E09306014F5F5F4F46175707B7
:107DB000E8F4AA2369F3F999FECF209106013091E6
:107DC000070132BD21BDF89A90B58091C00085FFB2
:107DD000FCCF9093C6002F5F3F4F30930701209355
:107DE00006014F5F5F4F4617570718F38091C00099
:107DF00085FDE5CE8091C00085FFF8CFE0CE81E023
:107E00000E94C73C67CE0E94763C803209F08CCE3F
:107E10008091C00085FFFCCFF092C6008091C00029
:107E200085FFFCCFE092C6008091C00085FFFCCFAB
:107E3000D092C6008091C00085FFFCCFC092C600E2
:107E40008091C00085FFFCCFB092C60043CEE09188
:107E50000601F091070194918091C00085FFFCCF4D
:107E60009093C6009CCF80E10E94C73C33CE0E9415
:107E7000763C0E94763C182F0E94763C112309F430
:107E800083C0113009F484C08FE00E94C73C22CE29
:107E900080910C02816080930C02E5CE80910C02EF
:107EA000816080930C0259CF809107018823880F4D
:107EB000880B8A2180930B02809106019091070123
:107EC000880F991F90930701809306018091080203
:107ED00080FF09C080910802909109020196909359
:107EE000090280930802F894F999FECF1127E091D6
:107EF0000601F0910701C8E0D1E08091080290915D
:107F00000902103091F40091570001700130D9F34B
:107F100003E000935700E89500915700017001308D
:107F2000D9F301E100935700E89509901990009169
:107F3000570001700130D9F301E000935700E89534
:107F40001395103498F011270091570001700130FB
:107F5000D9F305E000935700E895009157000170B0
:107F60000130D9F301E100935700E895329602976A
:107F700009F0C7CF103011F00296E5CF112480919F
:107F8000C00085FFB9CEBCCE8EE10E94C73CA2CD19
:0C7F900085E90E94C73C9ECDF894FFCF0D
:027F9C00800063
:040000030000780081
:00000001FF
