:100000000C9473000C949B000C949B000C949B002C
:100010000C949B000C949B000C949B000C949B00F4
:100020000C949B000C949B000C949B000C949B00E4
:100030000C949B000C949B000C949B000C949B00D4
:100040000C949B050C949B000C9469050C9443053F
:100050000C949B000C949B000C949B000C949B00B4
:100060000C949B000C949B00BA045D045D047B041B
:10007000E20422055D045D045D045D04A3045D04E7
:100080005D045D045D048B04C904000000002400CD
:1000900027002A0000000000250028002B00000097
:1000A00000002300260029000404040404040404BE
:1000B0000202020202020303030303030102040813
:1000C00010204080010204081020010204081020C2
:1000D0000000000800020100000304070000000007
:1000E00000000000E50511241FBECFEFD8E0DEBF01
:1000F000CDBF11E0A0E0B1E0E4E8F6E102C0059078
:100100000D92A83CB107D9F723E0A8ECB1E001C0FB
:100110001D92A130B207E1F710E0C3E7D0E004C0C0
:100120002197FE010E94130AC237D107C9F70E9426
:1001300045060C94400B0C940000CF92DF92EF9296
:10014000FF920F931F93CF93DF936C017A018B0182
:10015000C0E0D0E0CE15DF0589F0D8016D918D01AA
:10016000D601ED91FC910190F081E02DC601099539
:10017000892B11F47E0102C02196ECCFC701DF91DB
:10018000CF911F910F91FF90EF90DF90CF90089546
:10019000FC01918D828D981761F0828DDF01A80F8F
:1001A000B11D5D968C91928D9F5F9F73928F90E0B1
:1001B00008958FEF9FEF0895FC01918D828D981720
:1001C00031F0828DE80FF11D858D90E008958FEF5D
:1001D0009FEF0895FC01918D228D892F90E0805C26
:1001E0009F4F821B91098F739927089581E092E0B8
:1001F0000E94EA0021E0892B09F420E0822F089573
:10020000FC01848DDF01A80FB11DA35ABF4F2C91B3
:10021000848D90E001968F739927848FA689B78982
:100220002C93A089B1898C9180648C93938D848D5B
:10023000981306C00288F389E02D80818F7D80832A
:100240000895EF92FF920F931F93CF93DF93EC01EA
:1002500081E0888F9B8D8C8D981305C0E889F98982
:10026000808185FD24C0F62E0B8D10E00F5F1F4F9F
:100270000F731127E02E8C8DE8120CC00FB607FC0F
:10028000FACFE889F989808185FFF5CFCE010E94F8
:100290000001F1CF8B8DFE01E80FF11DE35AFF4FF6
:1002A000F0820B8FEA89FB898081806207C0EE892A
:1002B000FF896083E889F98980818064808381E097
:1002C00090E0DF91CF911F910F91FF90EF900895F3
:1002D000CF93DF93EC01888D8823C9F0EA89FB89ED
:1002E000808185FD05C0A889B9898C9186FD0FC0E4
:1002F0000FB607FCF5CF808185FFF2CFA889B989B9
:100300008C9185FFEDCFCE010E940001E7CFDF91F8
:10031000CF91089580E090E0892B29F00E94F600AB
:1003200081110C9400000895833081F028F481300D
:1003300099F08230A1F008958730A9F08830B9F0A3
:100340008430D1F4809180008F7D03C08091800043
:100350008F7780938000089584B58F7702C084B52D
:100360008F7D84BD08958091B0008F7703C0809108
:10037000B0008F7D8093B0000895CF93DF93E2EEBD
:10038000F0E08491EEECF0E0D491EAEBF0E0C4917F
:10039000CC2391F081110E949401EC2FF0E0EE0F3C
:1003A000FF1FE256FF4FA591B491EC91ED2381E040
:1003B00090E021F480E002C080E090E0DF91CF91F6
:1003C00008951F93CF93DF93282F30E0F901E05376
:1003D000FF4F8491F901E454FF4FD491F901E8559E
:1003E000FF4FC491CC23C9F0162F81110E949401B4
:1003F000EC2FF0E0EE0FFF1FEC56FF4FA591B491EC
:100400008FB7F894111105C09C91ED2FE095E92369
:1004100002C0EC91ED2BEC938FBFDF91CF911F9138
:100420000895CF93DF9390E0FC01E454FF4F2491B3
:10043000FC01E855FF4F8491882361F190E0880F1B
:10044000991FFC01E657FF4FC591D491FC01EC5672
:10045000FF4FA591B491611109C09FB7F8948881AD
:10046000209582238883EC912E230BC0623061F4A7
:100470009FB7F8943881822F809583238883EC91ED
:100480002E2B2C939FBF06C08FB7F894E8812E2B9C
:1004900028838FBFDF91CF9108951F93CF93DF9370
:1004A000182FEB0161E00E941102209711F460E027
:1004B00004C0CF3FD10539F461E0812FDF91CF91A6
:1004C0001F910C94E101E12FF0E0E053FF4FE49124
:1004D000E330F9F048F4E130B9F0E230A1F584B549
:1004E000806284BDC8BD34C0E730E9F0E83019F15E
:1004F000E43049F580918000806280938000D09341
:100500008B00C0938A0024C084B5806884BDC7BDB9
:100510001FC080918000806880938000D093890004
:10052000C093880015C08091B00080688093B000AF
:10053000C093B3000DC08091B00080628093B00082
:10054000C093B40005C0C038D1050CF0B5CFAFCF13
:10055000DF91CF911F9108958E3008F08E508770F3
:10056000806480937C0080917A00806480937A001C
:1005700080917A0086FDFCCF8091780020917900EF
:1005800090E0922B08953FB7F8948091D10190911B
:10059000D201A091D301B091D40126B5A89B05C08A
:1005A0002F3F19F00196A11DB11D3FBFBA2FA92FF2
:1005B000982F8827820F911DA11DB11DBC01CD016F
:1005C00042E0660F771F881F991F4A95D1F708955B
:1005D000CF93DF93D72FC82F70E089E00E944D02A0
:1005E0006D2F70E08AE00E944D026C2F70E08BE06E
:1005F000DF91CF910C944D028F929F92AF92BF9258
:10060000CF92DF92EF92FF92C090C801D090C901C3
:10061000E090CA01F090CB018090DB019090DC016A
:10062000A090DD01B090DE01A0910201B091030124
:10063000A70196010E94070BDC01CB012AE0B695C9
:10064000A795979587952A95D1F7880D991DAA1D8D
:10065000BB1D8093DF019093E001A093E101B09373
:10066000E201C80CD91CEA1CFB1CC092E301D09229
:10067000E401E092E501F092E601FF90EF90DF9057
:10068000CF90BF90AF909F908F900895CF92DF92C0
:10069000EF92FF926B017C018091E70181110DC007
:1006A00081E08093E7010E94C3026093DB017093B5
:1006B000DC018093DD019093DE01C092C801D092ED
:1006C000C901E092CA01F092CB01FF90EF90DF9058
:1006D000CF900C94FC028091B402882319F18130F0
:1006E00031F482E08093B4028FEB92E002C080E0AC
:1006F00090E02091BD02222351F049EB52E06BEBD8
:1007000072E00E94980A9093B8028093B702809199
:10071000B7029091B802892B21F01092BD0281E0BE
:10072000089580E00895009769F0FC010190002091
:10073000E9F73197AF01481B590BBC0181E092E00A
:100740000C949D0080E090E00895CF93DF930E9489
:100750009303EC0189E191E00E9493038C0F9D1FAC
:10076000DF91CF9108958F929F92AF92BF920F9396
:100770001F93CF93DF93CDB7DEB7A1970FB6F89451
:10078000DEBF0FBECDBF19A2423008F44AE08E0191
:100790000F5D1F4F842E912CA12CB12CA50194012B
:1007A0000E940F0BE62FB901CA0101501109EA306E
:1007B00014F4E05D01C0E95CD801EC93232B242BF9
:1007C000252B61F7C8010E949303A1960FB6F894F8
:1007D000DEBF0FBECDBFDF91CF911F910F91BF90B4
:1007E000AF909F908F9008950C949303CF93DF93D5
:1007F000BC0180E090E04AE00E94B303EC0189E193
:1008000091E00E9493038C0F9D1FDF91CF9108957B
:10081000CF92DF92EF92FF92CF93DF936C01990F0B
:10082000EE08FF08F7FE1AC0E0910102F091020203
:100830000190F081E02D6DE281E092E00995EC01FC
:1008400066277727CB016C197D098E099F094AE03D
:100850000E94B3037C01EC0EFD1E06C04AE0C701F6
:10086000B6010E94B3037C0189E191E00E949303E9
:100870008E0D9F1DDF91CF91FF90EF90DF90CF9075
:1008800008950E946B03882349F081E08093BD02A4
:100890008091B7029091B8020C947A0A80E090E0BF
:1008A00008950E94190ACF92DF92EF92FF921F9350
:1008B000CF93DF9311E0CFEFD0E00E946B0388234A
:1008C00009F4D9C00E946B03882341F01093BD0244
:1008D000E091B702F091B802E08101C0E0E08E2F14
:1008E00090E0FC01E354F109E131F10530F7EC5CF3
:1008F000FF4F0C94130A0E944104809580930401D9
:100900008CE191E00E94F403809104019E01281B78
:100910003109C9012CC081E291E00E94A5030E9427
:10092000C3026B017C010E94C302DC01CB018C1964
:100930009D09AE09BF09883E9340A105B10598F312
:100940000C94001CBACF8091FF01909100020E948C
:1009500008040E944104909300028093FF018AE200
:1009600091E00E94F4038091FF01909100020E94A7
:100970000804A3CF0E9441049093F3018093F201F5
:100980000E9441049093F5018093F4010E94410478
:1009900030C087E391E00E94F4036091F20180E0AF
:1009A00090E00E94CF0A6091F40181E090E00E9403
:1009B000CF0A6091F60182E090E00E94CF0A88E4BD
:1009C00091E056C080E090E00E94C70A90E09093CA
:1009D000F3018093F20181E090E00E94C70A90E069
:1009E0009093F5018093F40182E090E00E94C70AA1
:1009F00090E09093F7018093F60180E391E00E94EC
:100A0000F4036091F2017091F30180E090E04AE01C
:100A10000E94B30386E491E00E94F4036091F40124
:100A20007091F50180E090E04AE00E94B30386E413
:100A300091E00E94F4038091F6019091F7010E94E9
:100A4000F6033BCF8DE491E00E94A50384E591E09D
:100A50000E94A5038CE591E00E94A5038FE791E039
:100A60000E94A50381EA91E00E94A50382EB91E038
:100A70000E94A50322CFDF91CF911F91FF90EF90AD
:100A8000DF90CF9008951F920F920FB60F9211240E
:100A90002F933F934F935F936F937F938F939F9386
:100AA000AF93BF93EF93FF9381E092E00E94000128
:100AB000FF91EF91BF91AF919F918F917F916F9136
:100AC0005F914F913F912F910F900FBE0F901F900C
:100AD00018951F920F920FB60F9211242F938F9398
:100AE0009F93EF93FF93E0911102F09112028081A6
:100AF000E0911702F091180282FD12C0908180915E
:100B00001A028F5F8F7320911B02821751F0E091C0
:100B10001A02F0E0EF5FFD4F958F80931A0201C03B
:100B20008081FF91EF919F918F912F910F900FBE38
:100B30000F901F9018951F920F920FB60F921124CD
:100B40002F933F938F939F93AF93BF938091CD014A
:100B50009091CE01A091CF01B091D0013091CC0104
:100B600023E0230F2D3720F40196A11DB11D05C0F0
:100B700026E8230F0296A11DB11D2093CC0180937E
:100B8000CD019093CE01A093CF01B093D00180917D
:100B9000D1019091D201A091D301B091D4010196DD
:100BA000A11DB11D8093D1019093D201A093D301D7
:100BB000B093D401BF91AF919F918F913F912F91AD
:100BC0000F900FBE0F901F901895E1E0F2E0138296
:100BD000128288EE93E0A0E0B0E084839583A68340
:100BE000B7838DE091E09183808385EC90E09587D9
:100BF000848784EC90E09787868780EC90E0918BE7
:100C0000808B81EC90E0938B828B82EC90E0958BD3
:100C1000848B86EC90E0978B868B118E128E138ED0
:100C2000148EE4EBF2E01282118280E28783108658
:100C300080E48093FF028FE380930003128610828A
:100C4000148213821682158281E08187EEE9F2E038
:100C500080E894E8AEE1B0E080839183A283B3831F
:100C600086E493E09583848316821782108611862A
:100C7000128613861486158616861786108A118AA0
:100C8000128A138A148A158A0895789484B582602A
:100C900084BD84B5816084BD85B5826085BD85B520
:100CA000816085BD80916E00816080936E0010929E
:100CB0008100809181008260809381008091810019
:100CC00081608093810080918000816080938000AA
:100CD0008091B10084608093B1008091B000816008
:100CE0008093B00080917A00846080937A00809134
:100CF0007A00826080937A0080917A00816080938C
:100D00007A0080917A00806880937A001092C10006
:100D1000E0911102F091120282E08083E0911102D1
:100D2000F09112021082E0910D02F0910E021082F9
:100D3000E0910F02F091100280E18083109219027D
:100D4000E0911502F091160286E08083E091130293
:100D5000F0911402808180618083E0911302F09110
:100D60001402808188608083E0911302F091140264
:100D7000808180688083E0911302F0911402808169
:100D80008F7D808383E594E09093B6028093B502D3
:100D900080918100887F8160809381008091B10083
:100DA000887F81608093B10062E082E10E9411023D
:100DB00061E089E00E94110260E089E00E94E101A7
:100DC00061E08AE00E94110260E08AE00E94E10195
:100DD00061E08BE00E94110260E08BE00E94E10183
:100DE00061E086E00E9411026FEF70E086E00E94F1
:100DF0004D0261E08CE00E94110261E08CE00E94F3
:100E0000E10160E08EE00E94110262E082E00E9457
:100E1000110280E090E00E94C70A90E09093F301F5
:100E20008093F20181E090E00E94C70A90E09093E5
:100E3000F5018093F40182E090E00E94C70A90E0FF
:100E40009093F7018093F6010E94BD01892B31F444
:100E500081E090E0909300028093FF010E94FC02E9
:100E6000EE24E39466246A94712C6091040170E08E
:100E700086E00E944D028EE00E94AC029695879516
:100E8000969587959093DA018093D9018091D50149
:100E90009091D601A091D701B091D8010196A11DE2
:100EA000B11D8093D5019093D601A093D701B09343
:100EB000D80180319742A105B10590F084EC91E012
:100EC0000E94F4038091D9019091DA010E94F60307
:100ED0001092D5011092D6011092D7011092D8012C
:100EE0008091D9019091DA01873B910518F0109219
:100EF00004010AC08B3A910520F034E630930401D6
:100F000003C06FEF6093040181E10E94AC026C01A9
:100F1000D694C794D694C794D092F901C092F801A0
:100F200080E10E94AC028C011695079516950795F5
:100F30001093FB010093FA018FE00E94AC02EC01D8
:100F4000D695C795D695C795D093FD01C093FC0162
:100F50000E94BD01FF24F394892B09F4F12C8091A8
:100F6000FF01909100028130910509F4C4C18230E3
:100F7000910509F4E0C1892B09F0F3C10E94C30275
:100F80004B015C018091EA0181110AC0809102014C
:100F9000909103019093E9018093E801E092EA01C6
:100FA00080E094E08C199D096C019093030180937B
:100FB00002018091E8019091E901D601A81BB90BCB
:100FC000CD01B7FF03C0919581959109039714F066
:100FD0000E94FC02D092E901C092E80116950795A3
:100FE000169507959301201B310B89012A30310595
:100FF00010F40AE010E0D02E00930101CE018C5FC6
:101000009340049730F0D695C795D695C795C0956F
:1010100001C0C0E0C09300018091E701882309F47A
:1010200095C08091E3019091E401A091E501B09118
:10103000E60188159905AA05BB0508F087C00E943E
:101040006C0ADD2009F470C02FEF30E040E050E082
:101050000E94DD0AE62F862F6BE20E94070A4C2FC2
:1010600050E011279301201B310B429FD001439F79
:10107000B00D529FB00D11249B2F682F75ED760394
:10108000900111242E0F311D322F330F230F220F09
:1010900030E0029FB001039F700D129F700D11246C
:1010A000672F770F770BF301E61BF70B4E9FB0010D
:1010B0004F9F700D5E9F700D1124F301E21BF30B27
:1010C0000E9F90010F9F300D1E9F300D1124232F76
:1010D000330F330BF301E21BF30B4E9F90014F9F35
:1010E000300D5E9F300D1124432F823081F038F493
:1010F0008823B9F0813099F44C2FC72F12C0833068
:1011000051F0843061F49C2FC32F4B2F0AC04C2F19
:10111000CB2F932F06C0472F9C2FCB2F02C04B2FD6
:10112000972F6C2FC92F02C04C2F6C2F742F8C2F30
:101130000E94E8020E94C3026093DB017093DC010D
:101140008093DD019093DE010E94FC028091DF011B
:101150009091E001A091E101B091E201881599051B
:10116000AA05BB0528F460E070E080E00E94E80278
:101170002F2D30E08091FE0190E0281739070CF008
:10118000F0C00E94C3020091A4021091A502209118
:10119000A6023091A7024B015C01801A910AA20AB3
:1011A000B30A0E94C3026093A4027093A5028093C5
:1011B000A6029093A70280919E0290919F02A09117
:1011C000A002B091A10288159905AA05BB0548F4B3
:1011D0001092A8021092A9021092AA021092AB02D9
:1011E000C0C08091A8029091A902A091AA02B091DA
:1011F000AB020097A105B105A9F481E090E0A0E061
:10120000B0E08093A8029093A902A093AA02B093A1
:10121000AB028092AC029092AD02A092AE02B0926C
:10122000AF0261C02090AC023090AD024090AE029F
:101230005090AF020197A105B105C9F462E070E0DA
:1012400080E090E06093A8027093A9028093AA02C4
:101250009093AB028092B0029092B102A092B2023F
:10126000B092B302820C931CA41CB51C38C0209110
:10127000B0023091B1024091B2025091B302A3E0AA
:10128000B0E00E94FC0ADC01CB0142E0B695A795D4
:10129000979587954A95D1F79201810152E036954D
:1012A0002795179507955A95D1F7800F911FA21F83
:1012B000B31F8093AC029093AD02A093AE02B093A3
:1012C000AF028092B0029092B102A092B202B092AC
:1012D000B302880D991DAA1DBB1D4C015D01B6947A
:1012E000A79497948794E091A202F091A302C5017C
:1012F000B401099536C0B6017695679576956795E0
:101300001695079516950795CE019695879596950E
:101310008795702F0E94E8022F2D30E08091FE010A
:1013200090E028173907ECF482E090E090930002F7
:101330008093FF0116C07091F4016091F2018091D9
:10134000F6010E94E8022F2D30E08091FE0190E02E
:101350002817390734F4A1E0B0E0B0930002A0935D
:10136000FF01F092FE0181E092E00E94EA00892BE9
:1013700009F44AC081E092E00E94C8001092B402D1
:10138000181619069CF58A30910581F12091BE024C
:10139000E22FF0E0EC54FD4F8D30910591F413866F
:1013A0001092BE021092BA021092B902E092BD02EF
:1013B000E092B4022FEB32E03093B8022093B702F0
:1013C00015C08387E1E0E20FE093BE028091000345
:1013D000E81760F01092BE021092B8021092B702A5
:1013E0001092BA021092B902E092BD028091B4024A
:1013F000813009F0B8CFE091B502F091B602309794
:1014000009F4B1CF0995AFCF0E948A012ECD991B67
:1014100079E004C0991F961708F0961B881F7A95EB
:10142000C9F780950895EE0FFF1F0590F491E02D08
:10143000099481E090E0F8940C94400B8F929F9275
:10144000AF92BF92CF92DF92EF92FF92CF93DF9352
:10145000EC01688179818A819B8161157105810523
:10146000910521F464E279ED8BE597E02DE133EF0E
:1014700041E050E00E94DD0A49015A019B01AC01A4
:10148000A7EAB1E40E94FC0A6B017C01ACEEB4EF68
:10149000A50194010E940A0BDC01CB018C0D9D1D5E
:1014A000AE1DBF1DB7FF03C00197A109B0488883D7
:1014B0009983AA83BB83BC01CD019F77DF91CF9134
:1014C000FF90EF90DF90CF90BF90AF909F908F9064
:1014D00008950E941E0A089585E091E00E941E0A68
:1014E000089560930501709306018093070190931E
:1014F00008010895FC0188279927E894219120325A
:10150000E9F3293010F02E30C8F32B3241F02D32A0
:1015100039F4689404C00E94BF0A820F911D219182
:1015200020532A30C0F31EF4909581959F4F089563
:10153000FA01A191B081009719F41097E1F0CD0163
:10154000DC01CD010D90002011F4C00113C0FB019E
:101550002191222319F02015D9F7F3CFFB01219116
:10156000201519F41E92119606C02223C1F70D9082
:101570000020A1F7D001FA01A193B08308957AE089
:10158000979F902D879F802D910D11240895F99993
:10159000FECF92BD81BDF89A992780B50895262F78
:1015A000F999FECF1FBA92BD81BD20BD0FB6F89448
:1015B000FA9AF99A0FBE01960895052E97FB1EF42C
:1015C00000940E94F40A57FD07D00E940F0B07FCFD
:1015D00003D04EF40C94F40A509540953095219523
:1015E0003F4F4F4F5F4F089590958095709561954F
:1015F0007F4F8F4F9F4F08950E94310BA59F900DF5
:10160000B49F900DA49F800D911D11240895B7FFE4
:101610000C94FC0A0E94FC0A821B930B0895A1E221
:101620001A2EAA1BBB1BFD010DC0AA1FBB1FEE1F5C
:10163000FF1FA217B307E407F50720F0A21BB30BA7
:10164000E40BF50B661F771F881F991F1A9469F723
:1016500060957095809590959B01AC01BD01CF017F
:101660000895A29FB001B39FC001A39F700D811D7B
:101670001124911DB29F700D811D1124911D08959B
:04168000F894FFCF0C
:10168400FFFF0002FF010000000000000021019D97
:1016940000EA00C800DC0068010D0A0046414E3A29
:1016A400005245534554494E47004D4F44453A0076
:1016B400434F4C4F523A0077726974696E67204504
:1016C4004550524F4D212000446F6E65004820481C
:1016D400656C7000522052657365740043203C723F
:1016E4003E203C673E203C623E20436F6C6F72207C
:1016F40072656420677265656E20626C7565004D65
:10170400203C302D323E204D6F6465207061727430
:10171400792C20616E616C6F672072656D6F7465E2
:101724000053205361766520746F20656570726F75
:101734006D0047204765742066726F6D2065657083
:08174400726F6D00543A0000C1
:107800000C94343C0C94513C0C94513C0C94513CE1
:107810000C94513C0C94513C0C94513C0C94513CB4
:107820000C94513C0C94513C0C94513C0C94513CA4
:107830000C94513C0C94513C0C94513C0C94513C94
:107840000C94513C0C94513C0C94513C0C94513C84
:107850000C94513C0C94513C0C94513C0C94513C74
:107860000C94513C0C94513C11241FBECFEFD8E036
:10787000DEBFCDBF11E0A0E0B1E0ECE9FFE702C060
:1078800005900D92A230B107D9F712E0A2E0B1E065
:1078900001C01D92AD30B107E1F70E942D3D0C945F
:1078A000CC3F0C94003C982F959595959595959582
:1078B000905D8F708A307CF0282F295A8091C0000B
:1078C00085FFFCCF9093C6008091C00085FFFCCF60
:1078D0002093C6000895282F205DF0CF982F809127
:1078E000C00085FFFCCF9093C6000895EF92FF92F1
:1078F0000F931F93EE24FF2487018091C00087FD22
:1079000017C00894E11CF11C011D111D81E4E8164B
:1079100082E4F8068FE0080780E0180770F3E09132
:107920000401F091050109958091C00087FFE9CF1E
:107930008091C6001F910F91FF90EF9008950E94D3
:10794000763C982F8091C00085FFFCCF9093C600B5
:1079500091362CF490330CF09053892F089597555D
:10796000892F08951F930E949F3C182F0E949F3CCF
:107970001295107F810F1F9108951F93182F882350
:1079800021F00E94763C1150E1F71F9108951F935A
:10799000182F0E94763C803249F0809103018F5F5E
:1079A000809303018530C1F01F9108958091C0003C
:1079B00085FFFCCF84E18093C6008091C00085FFE5
:1079C000FCCF1093C6008091C00085FFFCCF80E102
:1079D0008093C6001F910895E0910401F091050184
:1079E00009951F9108950E94763C803241F0809164
:1079F00003018F5F80930301853081F008958091AA
:107A0000C00085FFFCCF84E18093C6008091C00058
:107A100085FFFCCF80E18093C6000895E0910401CA
:107A2000F09105010995089540E951E08823A1F0FE
:107A30002D9A28EE33E0FA013197F1F721503040CA
:107A4000D1F72D9828EE33E0FA013197F1F7215064
:107A50003040D1F7815061F708953F924F925F9285
:107A60006F927F928F929F92AF92BF92CF92DF924E
:107A7000EF92FF920F931F93CF93DF93000080E16B
:107A80008093C4001092C50088E18093C10086E015
:107A90008093C2005098589A259A81E00E94143D24
:107AA00024E1F22E9EE1E92E85E9D82E0FE0C02ECA
:107AB00010E1B12EAA24A394B1E49B2EA6E58A2E50
:107AC000F2E57F2EE0E26E2E79E4572E63E5462E36
:107AD00050E5352E0E94763C8033B1F18133B9F107
:107AE000803409F46FC0813409F476C0823409F41B
:107AF00085C0853409F488C0803531F1823521F1A3
:107B0000813511F1853509F485C0863509F48DC0BC
:107B1000843609F496C0843709F403C1853709F423
:107B200072C1863709F466C0809103018F5F80932C
:107B30000301853079F6E0910401F0910501099582
:107B40000E94763C803351F60E94F33CC3CF0E94E2
:107B5000763C803249F78091C00085FFFCCFF092DF
:107B6000C6008091C00085FFFCCF9092C600809136
:107B7000C00085FFFCCF8092C6008091C00085FFC9
:107B8000FCCF7092C6008091C00085FFFCCF609250
:107B9000C6008091C00085FFFCCF5092C600809146
:107BA000C00085FFFCCF4092C6008091C00085FFD9
:107BB000FCCF3092C6008091C00085FFFCCFB09210
:107BC000C60088CF0E94763C863808F4BDCF0E945C
:107BD000763C0E94F33C7ECF0E94763C803809F4CC
:107BE0009CC0813809F40BC1823809F43CC1883942
:107BF00009F48FC080E00E94C73C6CCF84E10E94F2
:107C0000BD3C0E94F33C66CF85E00E94BD3C0E94D3
:107C1000F33C60CF0E94763C809306010E94763C44
:107C2000809307010E94F33C55CF0E94763C80333D
:107C300009F41DC183E00E94BD3C80E00E94C73C66
:107C400049CF0E94763C809309020E94763C809343
:107C5000080280910C028E7F80930C020E94763C79
:107C6000853409F415C18091080290910902892B8D
:107C700089F000E010E00E94763CF801E85FFE4FDA
:107C800080830F5F1F4F80910802909109020817AF
:107C9000190788F30E94763C803209F045CF809125
:107CA0000C0280FF01C16091060170910701660F0F
:107CB000771F7093070160930601A0910802B091AD
:107CC00009021097C9F0E8E0F1E09B01AD014E0F09
:107CD0005F1FF999FECF32BD21BD819180BDFA9A17
:107CE000F99A2F5F3F4FE417F50799F76A0F7B1F4B
:107CF00070930701609306018091C00085FFFCCF5F
:107D0000F092C6008091C00085FFFCCFB092C60003
:107D1000E1CE83E00E94C73CDDCE82E00E94C73CFA
:107D2000D9CE0E94763C809309020E94763C8093D3
:107D300008028091060190910701880F991F909386
:107D40000701809306010E94763C853409F4A6C0A1
:107D500080910C028E7F80930C020E94763C8032D0
:107D600009F0B8CE8091C00085FFFCCFF092C6002C
:107D7000609108027091090261157105B9F140E046
:107D800050E080910C02A82FA170B82FB27011C0E2
:107D9000BB2309F45CC0E0910601F0910701319624
:107DA000F0930701E09306014F5F5F4F46175707B7
:107DB000E8F4AA2369F3F999FECF209106013091E6
:107DC000070132BD21BDF89A90B58091C00085FFB2
:107DD000FCCF9093C6002F5F3F4F30930701209355
:107DE00006014F5F5F4F4617570718F38091C00099
:107DF00085FDE5CE8091C00085FFF8CFE0CE81E023
:107E00000E94C73C67CE0E94763C803209F08CCE3F
:107E10008091C00085FFFCCFF092C6008091C00029
:107E200085FFFCCFE092C6008091C00085FFFCCFAB
:107E3000D092C6008091C00085FFFCCFC092C600E2
:107E40008091C00085FFFCCFB092C60043CEE09188
:107E50000601F091070194918091C00085FFFCCF4D
:107E60009093C6009CCF80E10E94C73C33CE0E9415
:107E7000763C0E94763C182F0E94763C112309F430
:107E800083C0113009F484C08FE00E94C73C22CE29
:107E900080910C02816080930C02E5CE80910C02EF
:107EA000816080930C0259CF809107018823880F4D
:107EB000880B8A2180930B02809106019091070123
:107EC000880F991F90930701809306018091080203
:107ED00080FF09C080910802909109020196909359
:107EE000090280930802F894F999FECF1127E091D6
:107EF0000601F0910701C8E0D1E08091080290915D
:107F00000902103091F40091570001700130D9F34B
:107F100003E000935700E89500915700017001308D
:107F2000D9F301E100935700E89509901990009169
:107F3000570001700130D9F301E000935700E89534
:107F40001395103498F011270091570001700130FB
:107F5000D9F305E000935700E895009157000170B0
:107F60000130D9F301E100935700E895329602976A
:107F700009F0C7CF103011F00296E5CF112480919F
:107F8000C00085FFB9CEBCCE8EE10E94C73CA2CD19
:0C7F900085E90E94C73C9ECDF894FFCF0D
:027F9C00800063
:040000030000780081
:00000001FF
